{
	"schemaVersion": "2.0.0",
	"contractName": "Forwarder",
	"compilerOutput": {
		"abi": [
			{
				"constant": true,
				"inputs": [
					{
						"name": "",
						"type": "address"
					},
					{
						"name": "",
						"type": "address"
					},
					{
						"name": "",
						"type": "uint256"
					},
					{
						"name": "",
						"type": "bytes"
					}
				],
				"name": "onERC721Received",
				"outputs": [
					{
						"name": "",
						"type": "bytes4"
					}
				],
				"payable": false,
				"stateMutability": "pure",
				"type": "function"
			},
			{
				"constant": false,
				"inputs": [
					{
						"components": [
							{
								"name": "makerAddress",
								"type": "address"
							},
							{
								"name": "takerAddress",
								"type": "address"
							},
							{
								"name": "feeRecipientAddress",
								"type": "address"
							},
							{
								"name": "senderAddress",
								"type": "address"
							},
							{
								"name": "makerAssetAmount",
								"type": "uint256"
							},
							{
								"name": "takerAssetAmount",
								"type": "uint256"
							},
							{
								"name": "makerFee",
								"type": "uint256"
							},
							{
								"name": "takerFee",
								"type": "uint256"
							},
							{
								"name": "expirationTimeSeconds",
								"type": "uint256"
							},
							{
								"name": "salt",
								"type": "uint256"
							},
							{
								"name": "makerAssetData",
								"type": "bytes"
							},
							{
								"name": "takerAssetData",
								"type": "bytes"
							}
						],
						"name": "orders",
						"type": "tuple[]"
					},
					{
						"name": "signatures",
						"type": "bytes[]"
					},
					{
						"components": [
							{
								"name": "makerAddress",
								"type": "address"
							},
							{
								"name": "takerAddress",
								"type": "address"
							},
							{
								"name": "feeRecipientAddress",
								"type": "address"
							},
							{
								"name": "senderAddress",
								"type": "address"
							},
							{
								"name": "makerAssetAmount",
								"type": "uint256"
							},
							{
								"name": "takerAssetAmount",
								"type": "uint256"
							},
							{
								"name": "makerFee",
								"type": "uint256"
							},
							{
								"name": "takerFee",
								"type": "uint256"
							},
							{
								"name": "expirationTimeSeconds",
								"type": "uint256"
							},
							{
								"name": "salt",
								"type": "uint256"
							},
							{
								"name": "makerAssetData",
								"type": "bytes"
							},
							{
								"name": "takerAssetData",
								"type": "bytes"
							}
						],
						"name": "feeOrders",
						"type": "tuple[]"
					},
					{
						"name": "feeSignatures",
						"type": "bytes[]"
					},
					{
						"name": "feeProportion",
						"type": "uint16"
					},
					{
						"name": "feeRecipient",
						"type": "address"
					}
				],
				"name": "marketSellEthForERC20",
				"outputs": [
					{
						"components": [
							{
								"name": "makerAssetFilledAmount",
								"type": "uint256"
							},
							{
								"name": "takerAssetFilledAmount",
								"type": "uint256"
							},
							{
								"name": "makerFeePaid",
								"type": "uint256"
							},
							{
								"name": "takerFeePaid",
								"type": "uint256"
							}
						],
						"name": "totalFillResults",
						"type": "tuple"
					}
				],
				"payable": true,
				"stateMutability": "payable",
				"type": "function"
			},
			{
				"constant": true,
				"inputs": [
					{
						"components": [
							{
								"name": "makerAddress",
								"type": "address"
							},
							{
								"name": "takerAddress",
								"type": "address"
							},
							{
								"name": "feeRecipientAddress",
								"type": "address"
							},
							{
								"name": "senderAddress",
								"type": "address"
							},
							{
								"name": "makerAssetAmount",
								"type": "uint256"
							},
							{
								"name": "takerAssetAmount",
								"type": "uint256"
							},
							{
								"name": "makerFee",
								"type": "uint256"
							},
							{
								"name": "takerFee",
								"type": "uint256"
							},
							{
								"name": "expirationTimeSeconds",
								"type": "uint256"
							},
							{
								"name": "salt",
								"type": "uint256"
							},
							{
								"name": "makerAssetData",
								"type": "bytes"
							},
							{
								"name": "takerAssetData",
								"type": "bytes"
							}
						],
						"name": "orders",
						"type": "tuple[]"
					},
					{
						"name": "makerAssetFillAmount",
						"type": "uint256"
					}
				],
				"name": "calculateMarketBuyResults",
				"outputs": [
					{
						"components": [
							{
								"name": "makerAssetFilledAmount",
								"type": "uint256"
							},
							{
								"name": "takerAssetFilledAmount",
								"type": "uint256"
							},
							{
								"name": "makerFeePaid",
								"type": "uint256"
							},
							{
								"name": "takerFeePaid",
								"type": "uint256"
							}
						],
						"name": "totalFillResults",
						"type": "tuple"
					}
				],
				"payable": false,
				"stateMutability": "view",
				"type": "function"
			},
			{
				"constant": true,
				"inputs": [],
				"name": "ALLOWABLE_EXCHANGE_PERCENTAGE",
				"outputs": [
					{
						"name": "",
						"type": "uint16"
					}
				],
				"payable": false,
				"stateMutability": "view",
				"type": "function"
			},
			{
				"constant": false,
				"inputs": [
					{
						"components": [
							{
								"name": "makerAddress",
								"type": "address"
							},
							{
								"name": "takerAddress",
								"type": "address"
							},
							{
								"name": "feeRecipientAddress",
								"type": "address"
							},
							{
								"name": "senderAddress",
								"type": "address"
							},
							{
								"name": "makerAssetAmount",
								"type": "uint256"
							},
							{
								"name": "takerAssetAmount",
								"type": "uint256"
							},
							{
								"name": "makerFee",
								"type": "uint256"
							},
							{
								"name": "takerFee",
								"type": "uint256"
							},
							{
								"name": "expirationTimeSeconds",
								"type": "uint256"
							},
							{
								"name": "salt",
								"type": "uint256"
							},
							{
								"name": "makerAssetData",
								"type": "bytes"
							},
							{
								"name": "takerAssetData",
								"type": "bytes"
							}
						],
						"name": "orders",
						"type": "tuple[]"
					},
					{
						"name": "signatures",
						"type": "bytes[]"
					},
					{
						"components": [
							{
								"name": "makerAddress",
								"type": "address"
							},
							{
								"name": "takerAddress",
								"type": "address"
							},
							{
								"name": "feeRecipientAddress",
								"type": "address"
							},
							{
								"name": "senderAddress",
								"type": "address"
							},
							{
								"name": "makerAssetAmount",
								"type": "uint256"
							},
							{
								"name": "takerAssetAmount",
								"type": "uint256"
							},
							{
								"name": "makerFee",
								"type": "uint256"
							},
							{
								"name": "takerFee",
								"type": "uint256"
							},
							{
								"name": "expirationTimeSeconds",
								"type": "uint256"
							},
							{
								"name": "salt",
								"type": "uint256"
							},
							{
								"name": "makerAssetData",
								"type": "bytes"
							},
							{
								"name": "takerAssetData",
								"type": "bytes"
							}
						],
						"name": "feeOrders",
						"type": "tuple[]"
					},
					{
						"name": "feeSignatures",
						"type": "bytes[]"
					},
					{
						"name": "makerTokenFillAmount",
						"type": "uint256"
					},
					{
						"name": "feeProportion",
						"type": "uint16"
					},
					{
						"name": "feeRecipient",
						"type": "address"
					}
				],
				"name": "marketBuyTokensWithEth",
				"outputs": [
					{
						"components": [
							{
								"name": "makerAssetFilledAmount",
								"type": "uint256"
							},
							{
								"name": "takerAssetFilledAmount",
								"type": "uint256"
							},
							{
								"name": "makerFeePaid",
								"type": "uint256"
							},
							{
								"name": "takerFeePaid",
								"type": "uint256"
							}
						],
						"name": "totalFillResults",
						"type": "tuple"
					}
				],
				"payable": true,
				"stateMutability": "payable",
				"type": "function"
			},
			{
				"constant": true,
				"inputs": [],
				"name": "PERCENTAGE_DENOMINATOR",
				"outputs": [
					{
						"name": "",
						"type": "uint16"
					}
				],
				"payable": false,
				"stateMutability": "view",
				"type": "function"
			},
			{
				"constant": true,
				"inputs": [],
				"name": "MAX_FEE",
				"outputs": [
					{
						"name": "",
						"type": "uint16"
					}
				],
				"payable": false,
				"stateMutability": "view",
				"type": "function"
			},
			{
				"constant": true,
				"inputs": [
					{
						"components": [
							{
								"name": "makerAddress",
								"type": "address"
							},
							{
								"name": "takerAddress",
								"type": "address"
							},
							{
								"name": "feeRecipientAddress",
								"type": "address"
							},
							{
								"name": "senderAddress",
								"type": "address"
							},
							{
								"name": "makerAssetAmount",
								"type": "uint256"
							},
							{
								"name": "takerAssetAmount",
								"type": "uint256"
							},
							{
								"name": "makerFee",
								"type": "uint256"
							},
							{
								"name": "takerFee",
								"type": "uint256"
							},
							{
								"name": "expirationTimeSeconds",
								"type": "uint256"
							},
							{
								"name": "salt",
								"type": "uint256"
							},
							{
								"name": "makerAssetData",
								"type": "bytes"
							},
							{
								"name": "takerAssetData",
								"type": "bytes"
							}
						],
						"name": "orders",
						"type": "tuple[]"
					},
					{
						"name": "takerAssetFillAmount",
						"type": "uint256"
					}
				],
				"name": "calculateMarketSellResults",
				"outputs": [
					{
						"components": [
							{
								"name": "makerAssetFilledAmount",
								"type": "uint256"
							},
							{
								"name": "takerAssetFilledAmount",
								"type": "uint256"
							},
							{
								"name": "makerFeePaid",
								"type": "uint256"
							},
							{
								"name": "takerFeePaid",
								"type": "uint256"
							}
						],
						"name": "totalFillResults",
						"type": "tuple"
					}
				],
				"payable": false,
				"stateMutability": "view",
				"type": "function"
			},
			{
				"constant": true,
				"inputs": [
					{
						"components": [
							{
								"name": "makerAddress",
								"type": "address"
							},
							{
								"name": "takerAddress",
								"type": "address"
							},
							{
								"name": "feeRecipientAddress",
								"type": "address"
							},
							{
								"name": "senderAddress",
								"type": "address"
							},
							{
								"name": "makerAssetAmount",
								"type": "uint256"
							},
							{
								"name": "takerAssetAmount",
								"type": "uint256"
							},
							{
								"name": "makerFee",
								"type": "uint256"
							},
							{
								"name": "takerFee",
								"type": "uint256"
							},
							{
								"name": "expirationTimeSeconds",
								"type": "uint256"
							},
							{
								"name": "salt",
								"type": "uint256"
							},
							{
								"name": "makerAssetData",
								"type": "bytes"
							},
							{
								"name": "takerAssetData",
								"type": "bytes"
							}
						],
						"name": "orders",
						"type": "tuple[]"
					},
					{
						"name": "zrxFillAmount",
						"type": "uint256"
					}
				],
				"name": "calculateMarketBuyZrxResults",
				"outputs": [
					{
						"components": [
							{
								"name": "makerAssetFilledAmount",
								"type": "uint256"
							},
							{
								"name": "takerAssetFilledAmount",
								"type": "uint256"
							},
							{
								"name": "makerFeePaid",
								"type": "uint256"
							},
							{
								"name": "takerFeePaid",
								"type": "uint256"
							}
						],
						"name": "totalFillResults",
						"type": "tuple"
					}
				],
				"payable": false,
				"stateMutability": "view",
				"type": "function"
			},
			{
				"constant": true,
				"inputs": [
					{
						"name": "",
						"type": "address"
					},
					{
						"name": "",
						"type": "uint256"
					},
					{
						"name": "",
						"type": "bytes"
					}
				],
				"name": "onERC721Received",
				"outputs": [
					{
						"name": "",
						"type": "bytes4"
					}
				],
				"payable": false,
				"stateMutability": "pure",
				"type": "function"
			},
			{
				"inputs": [
					{
						"name": "_exchange",
						"type": "address"
					},
					{
						"name": "_etherToken",
						"type": "address"
					},
					{
						"name": "_zrxToken",
						"type": "address"
					},
					{
						"name": "_erc20AssetProxyId",
						"type": "bytes4"
					},
					{
						"name": "_zrxAssetData",
						"type": "bytes"
					},
					{
						"name": "_wethAssetData",
						"type": "bytes"
					}
				],
				"payable": false,
				"stateMutability": "nonpayable",
				"type": "constructor"
			},
			{
				"payable": true,
				"stateMutability": "payable",
				"type": "fallback"
			}
		],
		"evm": {
			"bytecode": {
				"linkReferences": {},
				"object": "0x60806040523480156200001157600080fd5b506040516200368738038062003687833981018060405262000037919081019062000442565b60008054600160a060020a03808916600160a060020a031992831617835560018054828a1690841617905560028054918816919092161790558251879087908790869086906200008f906003906020850190620002e7565b508051620000a5906004906020840190620002e7565b5050600054604080517f4552433230546f6b656e28616464726573732900000000000000000000000000815290519081900360130181207f60704108000000000000000000000000000000000000000000000000000000008252600160a060020a039092169550636070410894506200012593509091506004016200056d565b602060405180830381600087803b1580156200014057600080fd5b505af115801562000155573d6000803e3d6000fd5b505050506040513d601f19601f820116820180604052506200017b919081019062000419565b9050600160a060020a03811615620002da576001546040517f095ea7b3000000000000000000000000000000000000000000000000000000008152600160a060020a039091169063095ea7b390620001dc908490600019906004016200054e565b602060405180830381600087803b158015620001f757600080fd5b505af11580156200020c573d6000803e3d6000fd5b505050506040513d601f19601f8201168201806040525062000232919081019062000506565b506002546040517f095ea7b3000000000000000000000000000000000000000000000000000000008152600160a060020a039091169063095ea7b39062000282908490600019906004016200054e565b602060405180830381600087803b1580156200029d57600080fd5b505af1158015620002b2573d6000803e3d6000fd5b505050506040513d601f19601f82011682018060405250620002d8919081019062000506565b505b505050505050506200063b565b828054600181600116156101000203166002900490600052602060002090601f016020900481019282601f106200032a57805160ff19168380011785556200035a565b828001600101855582156200035a579182015b828111156200035a5782518255916020019190600101906200033d565b50620003689291506200036c565b5090565b6200038991905b8082111562000368576000815560010162000373565b90565b60006200039a8251620005d2565b9392505050565b60006200039a825162000603565b60006200039a8251620005de565b6000601f82018313620003cf57600080fd5b8151620003e6620003e082620005aa565b62000583565b915080825260208301602083018583830111156200040357600080fd5b6200041083828462000608565b50505092915050565b6000602082840312156200042c57600080fd5b60006200043a84846200038c565b949350505050565b60008060008060008060c087890312156200045c57600080fd5b60006200046a89896200038c565b96505060206200047d89828a016200038c565b95505060406200049089828a016200038c565b9450506060620004a389828a01620003af565b93505060808701516001604060020a03811115620004c057600080fd5b620004ce89828a01620003bd565b92505060a08701516001604060020a03811115620004eb57600080fd5b620004f989828a01620003bd565b9150509295509295509295565b6000602082840312156200051957600080fd5b60006200043a8484620003a1565b6200053281620005d2565b82525050565b6200053281620005de565b620005328162000389565b604081016200055e828562000527565b6200039a602083018462000543565b602081016200057d828462000538565b92915050565b6040518181016001604060020a0381118282101715620005a257600080fd5b604052919050565b60006001604060020a03821115620005c157600080fd5b506020601f91909101601f19160190565b600160a060020a031690565b7fffffffff000000000000000000000000000000000000000000000000000000001690565b151590565b60005b83811015620006255781810151838201526020016200060b565b8381111562000635576000848401525b50505050565b61303c806200064b6000396000f3006080604052600436106100a35763ffffffff7c0100000000000000000000000000000000000000000000000000000000600035041663150b7a0281146100ff578063169645f2146101355780631c5b1ec41461015557806320472cf714610175578063725cef0614610197578063b3cd4254146101aa578063bc063e1a146101bf578063c5e6e6ac146101d4578063e58e9c16146101f4578063f0b9e5ba14610214575b60015473ffffffffffffffffffffffffffffffffffffffff1633146100fd576040517f08c379a00000000000000000000000000000000000000000000000000000000081526004016100f490612d9f565b60405180910390fd5b005b34801561010b57600080fd5b5061011f61011a3660046123e8565b610234565b60405161012c9190612d91565b60405180910390f35b6101486101433660046124c6565b610294565b60405161012c9190612e4f565b34801561016157600080fd5b506101486101703660046126a7565b610560565b34801561018157600080fd5b5061018a610626565b60405161012c9190612ea0565b6101486101a53660046125ac565b61062c565b3480156101b657600080fd5b5061018a6109fa565b3480156101cb57600080fd5b5061018a610a00565b3480156101e057600080fd5b506101486101ef3660046126a7565b610a06565b34801561020057600080fd5b5061014861020f3660046126a7565b610a79565b34801561022057600080fd5b5061011f61022f366004612461565b610b76565b604080517f6f6e455243373231526563656976656428616464726573732c6164647265737381527f2c75696e743235362c62797465732900000000000000000000000000000000006020820152905190819003602f019020949350505050565b61029c61204b565b34600080808084116102da576040517f08c379a00000000000000000000000000000000000000000000000000000000081526004016100f490612dcf565b6102e5848888610bd6565b92506102f18484610ca4565b9150600160009054906101000a900473ffffffffffffffffffffffffffffffffffffffff1673ffffffffffffffffffffffffffffffffffffffff1663d0e30db0836040518263ffffffff167c01000000000000000000000000000000000000000000000000000000000281526004016000604051808303818588803b15801561037957600080fd5b505af115801561038d573d6000803e3d6000fd5b50505050506103ba8b60008151811015156103a457fe5b9060200190602002015161014001516010610cbb565b60048054604080516020601f60027fffffffffffffffffffffffffffffffffffffffffffffffffffffffffffffffff61010060018816150201909516949094049384018190048102820181019092528281529394508301828280156104605780601f1061043557610100808354040283529160200191610460565b820191906000526020600020905b81548152906001019060200180831161044357829003601f168201915b50505050508b600081518110151561047457fe5b60209081029091010151610160015260025473ffffffffffffffffffffffffffffffffffffffff828116911614156104b8576104b18b8b84610d1c565b94506104c8565b6104c58b8b8b8b86610e36565b94505b6020850151841015610506576040517f08c379a00000000000000000000000000000000000000000000000000000000081526004016100f490612daf565b60208501518214610543576040517f08c379a00000000000000000000000000000000000000000000000000000000081526004016100f490612e0f565b61055281338760000151610fbe565b505050509695505050505050565b61056861204b565b600080600061057561204b565b600093505b865184101561061c57610591868660000151610ca4565b92506105d487858151811015156105a457fe5b9060200190602002015160a0015188868151811015156105c057fe5b906020019060200201516080015185611198565b91506105f787858151811015156105e757fe5b90602001906020020151836111b5565b905061060385826112fe565b84518614156106115761061c565b60019093019261057a565b5050505092915050565b61251c81565b61063461204b565b346000808211610670576040517f08c379a00000000000000000000000000000000000000000000000000000000081526004016100f490612dcf565b600086116106aa576040517f08c379a00000000000000000000000000000000000000000000000000000000081526004016100f490612dcf565b6106d28a60008151811015156106bc57fe5b9060200190602002015161014001516000611360565b604080517f4552433230546f6b656e28616464726573732900000000000000000000000000815290519081900360130190209091507fffffffff00000000000000000000000000000000000000000000000000000000808316911614806107b45750604080517f455243373231546f6b656e28616464726573732c75696e743235362c6279746581527f7329000000000000000000000000000000000000000000000000000000000000602082015290519081900360220190207fffffffff000000000000000000000000000000000000000000000000000000008281169116145b15156107ec576040517f08c379a00000000000000000000000000000000000000000000000000000000081526004016100f490612e2f565b600160009054906101000a900473ffffffffffffffffffffffffffffffffffffffff1673ffffffffffffffffffffffffffffffffffffffff1663d0e30db0836040518263ffffffff167c01000000000000000000000000000000000000000000000000000000000281526004016000604051808303818588803b15801561087257600080fd5b505af1158015610886573d6000803e3d6000fd5b5050604080517f4552433230546f6b656e28616464726573732900000000000000000000000000815290519081900360130190207fffffffff000000000000000000000000000000000000000000000000000000008581169116141592506108ff915050576108f88a8a8a8a8a6113cd565b9250610992565b604080517f455243373231546f6b656e28616464726573732c75696e743235362c6279746581527f7329000000000000000000000000000000000000000000000000000000000000602082015290519081900360220190207fffffffff00000000000000000000000000000000000000000000000000000000828116911614156109925761098f8a8a8a8a611724565b92505b60208301518210156109d0576040517f08c379a00000000000000000000000000000000000000000000000000000000081526004016100f490612daf565b6109ed6109e1838560200151610ca4565b84602001518787611a26565b5050979650505050505050565b61271081565b6103e881565b610a0e61204b565b600080610a1961204b565b600092505b8551831015610a7057610a35858560200151610ca4565b9150610a4886848151811015156105e757fe5b9050610a5484826112fe565b8484602001511415610a6557610a70565b600190920191610a1e565b50505092915050565b610a8161204b565b6000806000610a8e61204b565b600093505b865184101561061c57610aaa868660000151610ca4565b9250610b118785815181101515610abd57fe5b9060200190602002015160a00151610b0b8987815181101515610adc57fe5b90602001906020020151608001518a88815181101515610af857fe5b9060200190602002015160e00151610ca4565b85611198565b9150610b3e8785815181101515610b2457fe5b90602001906020020151610b39846001611b13565b6111b5565b9050610b5281600001518260600151610ca4565b8152610b5e85826112fe565b84518611610b6b5761061c565b600190930192610a93565b604080517f6f6e455243373231526563656976656428616464726573732c75696e7432353681527f2c62797465732900000000000000000000000000000000000000000000000000602082015290519081900360270190205b9392505050565b6000808361ffff16118015610c00575073ffffffffffffffffffffffffffffffffffffffff821615155b15610bcf576103e861ffff84161115610c45576040517f08c379a00000000000000000000000000000000000000000000000000000000081526004016100f490612def565b610c5661ffff841661271086611198565b60405190915073ffffffffffffffffffffffffffffffffffffffff83169082156108fc029083906000818181858888f19350505050158015610c9c573d6000803e3d6000fd5b509392505050565b600082821115610cb057fe5b508082035b92915050565b600081601401835110151515610cfd576040517f08c379a00000000000000000000000000000000000000000000000000000000081526004016100f490612e1f565b50016014015173ffffffffffffffffffffffffffffffffffffffff1690565b610d2461204b565b600080546040517f7e1d980800000000000000000000000000000000000000000000000000000000815273ffffffffffffffffffffffffffffffffffffffff90911690637e1d980890610d7f90889087908990600401612d5f565b608060405180830381600087803b158015610d9957600080fd5b505af1158015610dad573d6000803e3d6000fd5b505050506040513d601f19601f82011682018060405250610dd191908101906126f8565b9150610de582600001518360600151610ca4565b9050610df5826000015182611b22565b1515610e2d576040517f08c379a00000000000000000000000000000000000000000000000000000000081526004016100f490612e0f565b81529392505050565b610e3e61204b565b6000610e4861204b565b610e5061204b565b610e5861204b565b859350610e658a87610a06565b9250600083606001511115610ef957610e8388888560600151611b3f565b9150610e9c86610e97888560200151610ca4565b611b22565b1515610ed4576040517f08c379a00000000000000000000000000000000000000000000000000000000081526004016100f490612e0f565b610ee2848360200151610ca4565b606080840151908701526020808401519087015293505b6000546040517f7e1d980800000000000000000000000000000000000000000000000000000000815273ffffffffffffffffffffffffffffffffffffffff90911690637e1d980890610f53908d9088908e90600401612d5f565b608060405180830381600087803b158015610f6d57600080fd5b505af1158015610f81573d6000803e3d6000fd5b505050506040513d601f19601f82011682018060405250610fa591908101906126f8565b9050610fb185826112fe565b5050505095945050505050565b604080517f7472616e7366657228616464726573732c75696e7432353629000000000000008152905190819003601901812060009173ffffffffffffffffffffffffffffffffffffffff8616919061101c9086908690602401612d0b565b604080517fffffffffffffffffffffffffffffffffffffffffffffffffffffffffffffffe08184030181529181526020820180517bffffffffffffffffffffffffffffffffffffffffffffffffffffffff167fffffffff000000000000000000000000000000000000000000000000000000009094169390931783525181519192909182919080838360005b838110156110c05781810151838201526020016110a8565b50505050905090810190601f1680156110ed5780820380516001836020036101000a031916815260200191505b509150506000604051808303816000865af19250505080151561113c576040517f08c379a00000000000000000000000000000000000000000000000000000000081526004016100f490612dff565b3d15611159575060003d602014156111595760206000803e506000515b801515611192576040517f08c379a00000000000000000000000000000000000000000000000000000000081526004016100f490612dff565b50505050565b60006111ad6111a78584611e78565b84611e9c565b949350505050565b6111bd61204b565b6111c5612074565b600080546040517fc75e0a81000000000000000000000000000000000000000000000000000000008152829173ffffffffffffffffffffffffffffffffffffffff169063c75e0a819061121c908990600401612e5d565b606060405180830381600087803b15801561123657600080fd5b505af115801561124a573d6000803e3d6000fd5b505050506040513d601f19601f8201168201806040525061126e9190810190612716565b805190935060ff1660031461128257610a70565b6112948660a001518460400151610ca4565b91506112a08583611eb3565b9050808460200181815250506112bf818760a001518860800151611198565b845260a086015160c08701516112d6918391611198565b604085015260a086015160e08701516112f0918391611198565b606085015250505092915050565b8151815161130c9190611b13565b8252602080830151908201516113229190611b13565b60208301526040808301519082015161133b9190611b13565b6040830152606080830151908201516113549190611b13565b60609092019190915250565b6000816004018351101515156113a2576040517f08c379a00000000000000000000000000000000000000000000000000000000081526004016100f490612e3f565b5050602001517fffffffff000000000000000000000000000000000000000000000000000000001690565b6113d561204b565b60006113df61204b565b6113e761204b565b6113ef61204b565b6114018a60008151811015156103a457fe5b60048054604080516020601f60027fffffffffffffffffffffffffffffffffffffffffffffffffffffffffffffffff61010060018816150201909516949094049384018190048102820181019092528281529397508301828280156114a75780601f1061147c576101008083540402835291602001916114a7565b820191906000526020600020905b81548152906001019060200180831161148a57829003601f168201915b50505050508a60008151811015156114bb57fe5b60209081029091010151610160015260025473ffffffffffffffffffffffffffffffffffffffff85811691161415611599576114f88a8a88611b3f565b8051909350861115611536576040517f08c379a00000000000000000000000000000000000000000000000000000000081526004016100f490612e0f565b61154085846112fe565b61155c61155586600001518760600151611b13565b8651611b22565b1515611594576040517f08c379a00000000000000000000000000000000000000000000000000000000081526004016100f490612e0f565b611715565b6115a38a87610560565b91506000826060015111156115d8576115c188888460600151611b3f565b602080820151908701526060808201519087015290505b6000546040517fe5fa431b00000000000000000000000000000000000000000000000000000000815273ffffffffffffffffffffffffffffffffffffffff9091169063e5fa431b90611632908d908a908e90600401612d5f565b608060405180830381600087803b15801561164c57600080fd5b505af1158015611660573d6000803e3d6000fd5b505050506040513d601f19601f8201168201806040525061168491908101906126f8565b805190935086146116c1576040517f08c379a00000000000000000000000000000000000000000000000000000000081526004016100f490612e0f565b6116cb85846112fe565b6116dd85602001518460200151611b22565b1515611715576040517f08c379a00000000000000000000000000000000000000000000000000000000081526004016100f490612e0f565b610fb184338560000151610fbe565b61172c61204b565b6000806060600061173b61204b565b61174361204b565b8a51945084604051908082528060200260200182016040528015611771578160200160208202803883390190505b509350600092505b848310156118ad576117a6868c8581518110151561179357fe5b9060200190602002015160e00151611b13565b60048054604080516020601f60027fffffffffffffffffffffffffffffffffffffffffffffffffffffffffffffffff610100600188161502019095169490940493840181900481028201810190925282815293995083018282801561184c5780601f106118215761010080835404028352916020019161184c565b820191906000526020600020905b81548152906001019060200180831161182f57829003601f168201915b50505050508b8481518110151561185f57fe5b6020908102909101015161016001528a518b908490811061187c57fe5b9060200190602002015160a00151848481518110151561189857fe5b60209081029091010152600190920191611779565b60008611156118d8576118c1898988611b3f565b606080820151908901526020808201519089015291505b6000546040517f4d0ae54600000000000000000000000000000000000000000000000000000000815273ffffffffffffffffffffffffffffffffffffffff90911690634d0ae54690611932908e9088908f90600401612d26565b608060405180830381600087803b15801561194c57600080fd5b505af1158015611960573d6000803e3d6000fd5b505050506040513d601f19601f8201168201806040525061198491908101906126f8565b905061199087826112fe565b6119a287602001518260200151611b22565b15156119da576040517f08c379a00000000000000000000000000000000000000000000000000000000081526004016100f490612e0f565b600092505b84831015611a1857611a0d8b848151811015156119f857fe5b90602001906020020151610140015133611ec9565b6001909201916119df565b505050505050949350505050565b6000806000861115611b0b576001546040517f2e1a7d4d00000000000000000000000000000000000000000000000000000000815273ffffffffffffffffffffffffffffffffffffffff90911690632e1a7d4d90611a88908990600401612eae565b600060405180830381600087803b158015611aa257600080fd5b505af1158015611ab6573d6000803e3d6000fd5b50505050611ac5858585610bd6565b9150611ad18683610ca4565b90506000811115611b0b57604051339082156108fc029083906000818181858888f19350505050158015611b09573d6000803e3d6000fd5b505b505050505050565b600082820183811015610bcf57fe5b600080611b3461251c61271086611198565b909210159392505050565b611b4761204b565b6000806000611b5461204b565b600093505b8751841015611e6d576003805460408051602060026001851615610100027fffffffffffffffffffffffffffffffffffffffffffffffffffffffffffffffff0190941693909304601f81018490048402820184019092528181529291830182828015611c065780601f10611bdb57610100808354040283529160200191611c06565b820191906000526020600020905b815481529060010190602001808311611be957829003601f168201915b50505050508885815181101515611c1957fe5b602090810290910181015161014001919091526004805460408051601f60027fffffffffffffffffffffffffffffffffffffffffffffffffffffffffffffffff610100600187161502019094169390930492830185900485028101850190915281815292830182828015611cce5780601f10611ca357610100808354040283529160200191611cce565b820191906000526020600020905b815481529060010190602001808311611cb157829003601f168201915b50505050508885815181101515611ce157fe5b6020908102909101015161016001528451611cfd908790610ca4565b9250611d4b8885815181101515611d1057fe5b9060200190602002015160a00151610b0b8a87815181101515611d2f57fe5b90602001906020020151608001518b88815181101515610af857fe5b600054895191935073ffffffffffffffffffffffffffffffffffffffff169063b4be83d5908a9087908110611d7c57fe5b90602001906020020151611d91856001611b13565b8a88815181101515611d9f57fe5b906020019060200201516040518463ffffffff167c0100000000000000000000000000000000000000000000000000000000028152600401611de393929190612e6e565b608060405180830381600087803b158015611dfd57600080fd5b505af1158015611e11573d6000803e3d6000fd5b505050506040513d601f19601f82011682018060405250611e3591908101906126f8565b9050611e4981600001518260600151610ca4565b8152611e5585826112fe565b84518611611e6257611e6d565b600190930192611b59565b505050509392505050565b6000828202831580611e945750828482811515611e9157fe5b04145b1515610bcf57fe5b6000808284811515611eaa57fe5b04949350505050565b6000818310611ec25781610bcf565b5090919050565b6000806060611edf85601063ffffffff610cbb16565b9250611ef285602463ffffffff611f9916565b9150611f0585606463ffffffff611fa516565b6040517fb88d4fde00000000000000000000000000000000000000000000000000000000815290915073ffffffffffffffffffffffffffffffffffffffff84169063b88d4fde90611f60903090889087908790600401612cc7565b600060405180830381600087803b158015611f7a57600080fd5b505af1158015611f8e573d6000803e3d6000fd5b505050505050505050565b6000610bcf8383612000565b60606000611fb38484611f99565b9050602083019250808301845110151515611ffa576040517f08c379a00000000000000000000000000000000000000000000000000000000081526004016100f490612dbf565b50500190565b600081602001835110151515612042576040517f08c379a00000000000000000000000000000000000000000000000000000000081526004016100f490612ddf565b50016020015190565b608060405190810160405280600081526020016000815260200160008152602001600081525090565b604080516060810182526000808252602082018190529181019190915290565b6000610bcf8235612f54565b6000601f820183136120b157600080fd5b81356120c46120bf82612ee3565b612ebc565b81815260209384019390925082018360005b8381101561061c57813586016120ec888261216b565b84525060209283019291909101906001016120d6565b6000601f8201831361211357600080fd5b81356121216120bf82612ee3565b81815260209384019390925082018360005b8381101561061c5781358601612149888261227b565b8452506020928301929190910190600101612133565b6000610bcf8251612f99565b6000601f8201831361217c57600080fd5b813561218a6120bf82612f04565b915080825260208301602083018583830111156121a657600080fd5b610a70838284612fa2565b6000608082840312156121c357600080fd5b6121cd6080612ebc565b905060006121db848461215f565b82525060206121ec8484830161215f565b60208301525060406122008482850161215f565b60408301525060606122148482850161215f565b60608301525092915050565b60006060828403121561223257600080fd5b61223c6060612ebc565b9050600061224a84846123dc565b825250602061225b8484830161215f565b602083015250604061226f8482850161215f565b60408301525092915050565b6000610180828403121561228e57600080fd5b612299610180612ebc565b905060006122a78484612094565b82525060206122b884848301612094565b60208301525060406122cc84828501612094565b60408301525060606122e084828501612094565b60608301525060806122f4848285016123d0565b60808301525060a0612308848285016123d0565b60a08301525060c061231c848285016123d0565b60c08301525060e0612330848285016123d0565b60e083015250610100612345848285016123d0565b6101008301525061012061235b848285016123d0565b6101208301525061014082013567ffffffffffffffff81111561237d57600080fd5b6123898482850161216b565b6101408301525061016082013567ffffffffffffffff8111156123ab57600080fd5b6123b78482850161216b565b6101608301525092915050565b6000610bcf8235612f92565b6000610bcf8235612f99565b6000610bcf8251612f9c565b600080600080608085870312156123fe57600080fd5b600061240a8787612094565b945050602061241b87828801612094565b935050604061242c878288016123d0565b925050606085013567ffffffffffffffff81111561244957600080fd5b6124558782880161216b565b91505092959194509250565b60008060006060848603121561247657600080fd5b60006124828686612094565b9350506020612493868287016123d0565b925050604084013567ffffffffffffffff8111156124b057600080fd5b6124bc8682870161216b565b9150509250925092565b60008060008060008060c087890312156124df57600080fd5b863567ffffffffffffffff8111156124f657600080fd5b61250289828a01612102565b965050602087013567ffffffffffffffff81111561251f57600080fd5b61252b89828a016120a0565b955050604087013567ffffffffffffffff81111561254857600080fd5b61255489828a01612102565b945050606087013567ffffffffffffffff81111561257157600080fd5b61257d89828a016120a0565b935050608061258e89828a016123c4565b92505060a061259f89828a01612094565b9150509295509295509295565b600080600080600080600060e0888a0312156125c757600080fd5b873567ffffffffffffffff8111156125de57600080fd5b6125ea8a828b01612102565b975050602088013567ffffffffffffffff81111561260757600080fd5b6126138a828b016120a0565b965050604088013567ffffffffffffffff81111561263057600080fd5b61263c8a828b01612102565b955050606088013567ffffffffffffffff81111561265957600080fd5b6126658a828b016120a0565b94505060806126768a828b016123d0565b93505060a06126878a828b016123c4565b92505060c06126988a828b01612094565b91505092959891949750929550565b600080604083850312156126ba57600080fd5b823567ffffffffffffffff8111156126d157600080fd5b6126dd85828601612102565b92505060206126ee858286016123d0565b9150509250929050565b60006080828403121561270a57600080fd5b60006111ad84846121b1565b60006060828403121561272857600080fd5b60006111ad8484612220565b61273d81612f54565b82525050565b600061274e82612f50565b8084526020840193508360208202850161276785612f4a565b60005b8481101561279e578383038852612782838351612865565b925061278d82612f4a565b60209890980197915060010161276a565b50909695505050505050565b60006127b582612f50565b808452602084019350836020820285016127ce85612f4a565b60005b8481101561279e5783830388526127e9838351612bb2565b92506127f482612f4a565b6020989098019791506001016127d1565b600061281082612f50565b80845260208401935061282283612f4a565b60005b8281101561285257612838868351612cbe565b61284182612f4a565b602096909601959150600101612825565b5093949350505050565b61273d81612f6d565b600061287082612f50565b808452612884816020860160208601612fae565b61288d81612fda565b9093016020019392505050565b602381527f44454641554c545f46554e4354494f4e5f574554485f434f4e54524143545f4f60208201527f4e4c590000000000000000000000000000000000000000000000000000000000604082015260600190565b601181527f494e56414c49445f4d53475f56414c5545000000000000000000000000000000602082015260400190565b603081527f475245415445525f4f525f455155414c5f544f5f4e45535445445f425954455360208201527f5f4c454e4754485f524551554952454400000000000000000000000000000000604082015260600190565b601781527f56414c55455f475245415445525f5448414e5f5a45524f000000000000000000602082015260400190565b602681527f475245415445525f4f525f455155414c5f544f5f33325f4c454e4754485f524560208201527f5155495245440000000000000000000000000000000000000000000000000000604082015260600190565b601881527f4645455f50524f504f5254494f4e5f544f4f5f4c415247450000000000000000602082015260400190565b600f81527f5452414e534645525f4641494c45440000000000000000000000000000000000602082015260400190565b601681527f554e41434345505441424c455f5448524553484f4c4400000000000000000000602082015260400190565b602681527f475245415445525f4f525f455155414c5f544f5f32305f4c454e4754485f524560208201527f5155495245440000000000000000000000000000000000000000000000000000604082015260600190565b601781527f554e535550504f525445445f544f4b454e5f50524f5859000000000000000000602082015260400190565b602581527f475245415445525f4f525f455155414c5f544f5f345f4c454e4754485f52455160208201527f5549524544000000000000000000000000000000000000000000000000000000604082015260600190565b80516080830190612b798482612cbe565b506020820151612b8c6020850182612cbe565b506040820151612b9f6040850182612cbe565b5060608201516111926060850182612cbe565b8051600090610180840190612bc78582612734565b506020830151612bda6020860182612734565b506040830151612bed6040860182612734565b506060830151612c006060860182612734565b506080830151612c136080860182612cbe565b5060a0830151612c2660a0860182612cbe565b5060c0830151612c3960c0860182612cbe565b5060e0830151612c4c60e0860182612cbe565b50610100830151612c61610100860182612cbe565b50610120830151612c76610120860182612cbe565b50610140830151848203610140860152612c908282612865565b915050610160830151848203610160860152612cac8282612865565b95945050505050565b61273d81612f92565b61273d81612f99565b60808101612cd58287612734565b612ce26020830186612734565b612cef6040830185612cbe565b8181036060830152612d018184612865565b9695505050505050565b60408101612d198285612734565b610bcf6020830184612cbe565b60608082528101612d3781866127aa565b90508181036020830152612d4b8185612805565b90508181036040830152612cac8184612743565b60608082528101612d7081866127aa565b9050612d7f6020830185612cbe565b8181036040830152612cac8184612743565b60208101610cb5828461285c565b60208082528101610cb58161289a565b60208082528101610cb5816128f0565b60208082528101610cb581612920565b60208082528101610cb581612976565b60208082528101610cb5816129a6565b60208082528101610cb5816129fc565b60208082528101610cb581612a2c565b60208082528101610cb581612a5c565b60208082528101610cb581612a8c565b60208082528101610cb581612ae2565b60208082528101610cb581612b12565b60808101610cb58284612b68565b60208082528101610bcf8184612bb2565b60608082528101612e7f8186612bb2565b9050612e8e6020830185612cbe565b8181036040830152612cac8184612865565b60208101610cb58284612cb5565b60208101610cb58284612cbe565b60405181810167ffffffffffffffff81118282101715612edb57600080fd5b604052919050565b600067ffffffffffffffff821115612efa57600080fd5b5060209081020190565b600067ffffffffffffffff821115612f1b57600080fd5b506020601f919091017fffffffffffffffffffffffffffffffffffffffffffffffffffffffffffffffe0160190565b60200190565b5190565b73ffffffffffffffffffffffffffffffffffffffff1690565b7fffffffff000000000000000000000000000000000000000000000000000000001690565b61ffff1690565b90565b60ff1690565b82818337506000910152565b60005b83811015612fc9578181015183820152602001612fb1565b838111156111925750506000910152565b601f017fffffffffffffffffffffffffffffffffffffffffffffffffffffffffffffffe016905600a265627a7a72305820a73e1bc9ff714fdd2a4a0dd65f3190a23caddc388592c712c4717379c25c78646c6578706572696d656e74616cf50037",
				"opcodes": "PUSH1 0x80 PUSH1 0x40 MSTORE CALLVALUE DUP1 ISZERO PUSH3 0x11 JUMPI PUSH1 0x0 DUP1 REVERT JUMPDEST POP PUSH1 0x40 MLOAD PUSH3 0x3687 CODESIZE SUB DUP1 PUSH3 0x3687 DUP4 CODECOPY DUP2 ADD DUP1 PUSH1 0x40 MSTORE PUSH3 0x37 SWAP2 SWAP1 DUP2 ADD SWAP1 PUSH3 0x442 JUMP JUMPDEST PUSH1 0x0 DUP1 SLOAD PUSH1 0x1 PUSH1 0xA0 PUSH1 0x2 EXP SUB DUP1 DUP10 AND PUSH1 0x1 PUSH1 0xA0 PUSH1 0x2 EXP SUB NOT SWAP3 DUP4 AND OR DUP4 SSTORE PUSH1 0x1 DUP1 SLOAD DUP3 DUP11 AND SWAP1 DUP5 AND OR SWAP1 SSTORE PUSH1 0x2 DUP1 SLOAD SWAP2 DUP9 AND SWAP2 SWAP1 SWAP3 AND OR SWAP1 SSTORE DUP3 MLOAD DUP8 SWAP1 DUP8 SWAP1 DUP8 SWAP1 DUP7 SWAP1 DUP7 SWAP1 PUSH3 0x8F SWAP1 PUSH1 0x3 SWAP1 PUSH1 0x20 DUP6 ADD SWAP1 PUSH3 0x2E7 JUMP JUMPDEST POP DUP1 MLOAD PUSH3 0xA5 SWAP1 PUSH1 0x4 SWAP1 PUSH1 0x20 DUP5 ADD SWAP1 PUSH3 0x2E7 JUMP JUMPDEST POP POP PUSH1 0x0 SLOAD PUSH1 0x40 DUP1 MLOAD PUSH32 0x4552433230546F6B656E28616464726573732900000000000000000000000000 DUP2 MSTORE SWAP1 MLOAD SWAP1 DUP2 SWAP1 SUB PUSH1 0x13 ADD DUP2 KECCAK256 PUSH32 0x6070410800000000000000000000000000000000000000000000000000000000 DUP3 MSTORE PUSH1 0x1 PUSH1 0xA0 PUSH1 0x2 EXP SUB SWAP1 SWAP3 AND SWAP6 POP PUSH4 0x60704108 SWAP5 POP PUSH3 0x125 SWAP4 POP SWAP1 SWAP2 POP PUSH1 0x4 ADD PUSH3 0x56D JUMP JUMPDEST PUSH1 0x20 PUSH1 0x40 MLOAD DUP1 DUP4 SUB DUP2 PUSH1 0x0 DUP8 DUP1 EXTCODESIZE ISZERO DUP1 ISZERO PUSH3 0x140 JUMPI PUSH1 0x0 DUP1 REVERT JUMPDEST POP GAS CALL ISZERO DUP1 ISZERO PUSH3 0x155 JUMPI RETURNDATASIZE PUSH1 0x0 DUP1 RETURNDATACOPY RETURNDATASIZE PUSH1 0x0 REVERT JUMPDEST POP POP POP POP PUSH1 0x40 MLOAD RETURNDATASIZE PUSH1 0x1F NOT PUSH1 0x1F DUP3 ADD AND DUP3 ADD DUP1 PUSH1 0x40 MSTORE POP PUSH3 0x17B SWAP2 SWAP1 DUP2 ADD SWAP1 PUSH3 0x419 JUMP JUMPDEST SWAP1 POP PUSH1 0x1 PUSH1 0xA0 PUSH1 0x2 EXP SUB DUP2 AND ISZERO PUSH3 0x2DA JUMPI PUSH1 0x1 SLOAD PUSH1 0x40 MLOAD PUSH32 0x95EA7B300000000000000000000000000000000000000000000000000000000 DUP2 MSTORE PUSH1 0x1 PUSH1 0xA0 PUSH1 0x2 EXP SUB SWAP1 SWAP2 AND SWAP1 PUSH4 0x95EA7B3 SWAP1 PUSH3 0x1DC SWAP1 DUP5 SWAP1 PUSH1 0x0 NOT SWAP1 PUSH1 0x4 ADD PUSH3 0x54E JUMP JUMPDEST PUSH1 0x20 PUSH1 0x40 MLOAD DUP1 DUP4 SUB DUP2 PUSH1 0x0 DUP8 DUP1 EXTCODESIZE ISZERO DUP1 ISZERO PUSH3 0x1F7 JUMPI PUSH1 0x0 DUP1 REVERT JUMPDEST POP GAS CALL ISZERO DUP1 ISZERO PUSH3 0x20C JUMPI RETURNDATASIZE PUSH1 0x0 DUP1 RETURNDATACOPY RETURNDATASIZE PUSH1 0x0 REVERT JUMPDEST POP POP POP POP PUSH1 0x40 MLOAD RETURNDATASIZE PUSH1 0x1F NOT PUSH1 0x1F DUP3 ADD AND DUP3 ADD DUP1 PUSH1 0x40 MSTORE POP PUSH3 0x232 SWAP2 SWAP1 DUP2 ADD SWAP1 PUSH3 0x506 JUMP JUMPDEST POP PUSH1 0x2 SLOAD PUSH1 0x40 MLOAD PUSH32 0x95EA7B300000000000000000000000000000000000000000000000000000000 DUP2 MSTORE PUSH1 0x1 PUSH1 0xA0 PUSH1 0x2 EXP SUB SWAP1 SWAP2 AND SWAP1 PUSH4 0x95EA7B3 SWAP1 PUSH3 0x282 SWAP1 DUP5 SWAP1 PUSH1 0x0 NOT SWAP1 PUSH1 0x4 ADD PUSH3 0x54E JUMP JUMPDEST PUSH1 0x20 PUSH1 0x40 MLOAD DUP1 DUP4 SUB DUP2 PUSH1 0x0 DUP8 DUP1 EXTCODESIZE ISZERO DUP1 ISZERO PUSH3 0x29D JUMPI PUSH1 0x0 DUP1 REVERT JUMPDEST POP GAS CALL ISZERO DUP1 ISZERO PUSH3 0x2B2 JUMPI RETURNDATASIZE PUSH1 0x0 DUP1 RETURNDATACOPY RETURNDATASIZE PUSH1 0x0 REVERT JUMPDEST POP POP POP POP PUSH1 0x40 MLOAD RETURNDATASIZE PUSH1 0x1F NOT PUSH1 0x1F DUP3 ADD AND DUP3 ADD DUP1 PUSH1 0x40 MSTORE POP PUSH3 0x2D8 SWAP2 SWAP1 DUP2 ADD SWAP1 PUSH3 0x506 JUMP JUMPDEST POP JUMPDEST POP POP POP POP POP POP POP PUSH3 0x63B JUMP JUMPDEST DUP3 DUP1 SLOAD PUSH1 0x1 DUP2 PUSH1 0x1 AND ISZERO PUSH2 0x100 MUL SUB AND PUSH1 0x2 SWAP1 DIV SWAP1 PUSH1 0x0 MSTORE PUSH1 0x20 PUSH1 0x0 KECCAK256 SWAP1 PUSH1 0x1F ADD PUSH1 0x20 SWAP1 DIV DUP2 ADD SWAP3 DUP3 PUSH1 0x1F LT PUSH3 0x32A JUMPI DUP1 MLOAD PUSH1 0xFF NOT AND DUP4 DUP1 ADD OR DUP6 SSTORE PUSH3 0x35A JUMP JUMPDEST DUP3 DUP1 ADD PUSH1 0x1 ADD DUP6 SSTORE DUP3 ISZERO PUSH3 0x35A JUMPI SWAP2 DUP3 ADD JUMPDEST DUP3 DUP2 GT ISZERO PUSH3 0x35A JUMPI DUP3 MLOAD DUP3 SSTORE SWAP2 PUSH1 0x20 ADD SWAP2 SWAP1 PUSH1 0x1 ADD SWAP1 PUSH3 0x33D JUMP JUMPDEST POP PUSH3 0x368 SWAP3 SWAP2 POP PUSH3 0x36C JUMP JUMPDEST POP SWAP1 JUMP JUMPDEST PUSH3 0x389 SWAP2 SWAP1 JUMPDEST DUP1 DUP3 GT ISZERO PUSH3 0x368 JUMPI PUSH1 0x0 DUP2 SSTORE PUSH1 0x1 ADD PUSH3 0x373 JUMP JUMPDEST SWAP1 JUMP JUMPDEST PUSH1 0x0 PUSH3 0x39A DUP3 MLOAD PUSH3 0x5D2 JUMP JUMPDEST SWAP4 SWAP3 POP POP POP JUMP JUMPDEST PUSH1 0x0 PUSH3 0x39A DUP3 MLOAD PUSH3 0x603 JUMP JUMPDEST PUSH1 0x0 PUSH3 0x39A DUP3 MLOAD PUSH3 0x5DE JUMP JUMPDEST PUSH1 0x0 PUSH1 0x1F DUP3 ADD DUP4 SGT PUSH3 0x3CF JUMPI PUSH1 0x0 DUP1 REVERT JUMPDEST DUP2 MLOAD PUSH3 0x3E6 PUSH3 0x3E0 DUP3 PUSH3 0x5AA JUMP JUMPDEST PUSH3 0x583 JUMP JUMPDEST SWAP2 POP DUP1 DUP3 MSTORE PUSH1 0x20 DUP4 ADD PUSH1 0x20 DUP4 ADD DUP6 DUP4 DUP4 ADD GT ISZERO PUSH3 0x403 JUMPI PUSH1 0x0 DUP1 REVERT JUMPDEST PUSH3 0x410 DUP4 DUP3 DUP5 PUSH3 0x608 JUMP JUMPDEST POP POP POP SWAP3 SWAP2 POP POP JUMP JUMPDEST PUSH1 0x0 PUSH1 0x20 DUP3 DUP5 SUB SLT ISZERO PUSH3 0x42C JUMPI PUSH1 0x0 DUP1 REVERT JUMPDEST PUSH1 0x0 PUSH3 0x43A DUP5 DUP5 PUSH3 0x38C JUMP JUMPDEST SWAP5 SWAP4 POP POP POP POP JUMP JUMPDEST PUSH1 0x0 DUP1 PUSH1 0x0 DUP1 PUSH1 0x0 DUP1 PUSH1 0xC0 DUP8 DUP10 SUB SLT ISZERO PUSH3 0x45C JUMPI PUSH1 0x0 DUP1 REVERT JUMPDEST PUSH1 0x0 PUSH3 0x46A DUP10 DUP10 PUSH3 0x38C JUMP JUMPDEST SWAP7 POP POP PUSH1 0x20 PUSH3 0x47D DUP10 DUP3 DUP11 ADD PUSH3 0x38C JUMP JUMPDEST SWAP6 POP POP PUSH1 0x40 PUSH3 0x490 DUP10 DUP3 DUP11 ADD PUSH3 0x38C JUMP JUMPDEST SWAP5 POP POP PUSH1 0x60 PUSH3 0x4A3 DUP10 DUP3 DUP11 ADD PUSH3 0x3AF JUMP JUMPDEST SWAP4 POP POP PUSH1 0x80 DUP8 ADD MLOAD PUSH1 0x1 PUSH1 0x40 PUSH1 0x2 EXP SUB DUP2 GT ISZERO PUSH3 0x4C0 JUMPI PUSH1 0x0 DUP1 REVERT JUMPDEST PUSH3 0x4CE DUP10 DUP3 DUP11 ADD PUSH3 0x3BD JUMP JUMPDEST SWAP3 POP POP PUSH1 0xA0 DUP8 ADD MLOAD PUSH1 0x1 PUSH1 0x40 PUSH1 0x2 EXP SUB DUP2 GT ISZERO PUSH3 0x4EB JUMPI PUSH1 0x0 DUP1 REVERT JUMPDEST PUSH3 0x4F9 DUP10 DUP3 DUP11 ADD PUSH3 0x3BD JUMP JUMPDEST SWAP2 POP POP SWAP3 SWAP6 POP SWAP3 SWAP6 POP SWAP3 SWAP6 JUMP JUMPDEST PUSH1 0x0 PUSH1 0x20 DUP3 DUP5 SUB SLT ISZERO PUSH3 0x519 JUMPI PUSH1 0x0 DUP1 REVERT JUMPDEST PUSH1 0x0 PUSH3 0x43A DUP5 DUP5 PUSH3 0x3A1 JUMP JUMPDEST PUSH3 0x532 DUP2 PUSH3 0x5D2 JUMP JUMPDEST DUP3 MSTORE POP POP JUMP JUMPDEST PUSH3 0x532 DUP2 PUSH3 0x5DE JUMP JUMPDEST PUSH3 0x532 DUP2 PUSH3 0x389 JUMP JUMPDEST PUSH1 0x40 DUP2 ADD PUSH3 0x55E DUP3 DUP6 PUSH3 0x527 JUMP JUMPDEST PUSH3 0x39A PUSH1 0x20 DUP4 ADD DUP5 PUSH3 0x543 JUMP JUMPDEST PUSH1 0x20 DUP2 ADD PUSH3 0x57D DUP3 DUP5 PUSH3 0x538 JUMP JUMPDEST SWAP3 SWAP2 POP POP JUMP JUMPDEST PUSH1 0x40 MLOAD DUP2 DUP2 ADD PUSH1 0x1 PUSH1 0x40 PUSH1 0x2 EXP SUB DUP2 GT DUP3 DUP3 LT OR ISZERO PUSH3 0x5A2 JUMPI PUSH1 0x0 DUP1 REVERT JUMPDEST PUSH1 0x40 MSTORE SWAP2 SWAP1 POP JUMP JUMPDEST PUSH1 0x0 PUSH1 0x1 PUSH1 0x40 PUSH1 0x2 EXP SUB DUP3 GT ISZERO PUSH3 0x5C1 JUMPI PUSH1 0x0 DUP1 REVERT JUMPDEST POP PUSH1 0x20 PUSH1 0x1F SWAP2 SWAP1 SWAP2 ADD PUSH1 0x1F NOT AND ADD SWAP1 JUMP JUMPDEST PUSH1 0x1 PUSH1 0xA0 PUSH1 0x2 EXP SUB AND SWAP1 JUMP JUMPDEST PUSH32 0xFFFFFFFF00000000000000000000000000000000000000000000000000000000 AND SWAP1 JUMP JUMPDEST ISZERO ISZERO SWAP1 JUMP JUMPDEST PUSH1 0x0 JUMPDEST DUP4 DUP2 LT ISZERO PUSH3 0x625 JUMPI DUP2 DUP2 ADD MLOAD DUP4 DUP3 ADD MSTORE PUSH1 0x20 ADD PUSH3 0x60B JUMP JUMPDEST DUP4 DUP2 GT ISZERO PUSH3 0x635 JUMPI PUSH1 0x0 DUP5 DUP5 ADD MSTORE JUMPDEST POP POP POP POP JUMP JUMPDEST PUSH2 0x303C DUP1 PUSH3 0x64B PUSH1 0x0 CODECOPY PUSH1 0x0 RETURN STOP PUSH1 0x80 PUSH1 0x40 MSTORE PUSH1 0x4 CALLDATASIZE LT PUSH2 0xA3 JUMPI PUSH4 0xFFFFFFFF PUSH29 0x100000000000000000000000000000000000000000000000000000000 PUSH1 0x0 CALLDATALOAD DIV AND PUSH4 0x150B7A02 DUP2 EQ PUSH2 0xFF JUMPI DUP1 PUSH4 0x169645F2 EQ PUSH2 0x135 JUMPI DUP1 PUSH4 0x1C5B1EC4 EQ PUSH2 0x155 JUMPI DUP1 PUSH4 0x20472CF7 EQ PUSH2 0x175 JUMPI DUP1 PUSH4 0x725CEF06 EQ PUSH2 0x197 JUMPI DUP1 PUSH4 0xB3CD4254 EQ PUSH2 0x1AA JUMPI DUP1 PUSH4 0xBC063E1A EQ PUSH2 0x1BF JUMPI DUP1 PUSH4 0xC5E6E6AC EQ PUSH2 0x1D4 JUMPI DUP1 PUSH4 0xE58E9C16 EQ PUSH2 0x1F4 JUMPI DUP1 PUSH4 0xF0B9E5BA EQ PUSH2 0x214 JUMPI JUMPDEST PUSH1 0x1 SLOAD PUSH20 0xFFFFFFFFFFFFFFFFFFFFFFFFFFFFFFFFFFFFFFFF AND CALLER EQ PUSH2 0xFD JUMPI PUSH1 0x40 MLOAD PUSH32 0x8C379A000000000000000000000000000000000000000000000000000000000 DUP2 MSTORE PUSH1 0x4 ADD PUSH2 0xF4 SWAP1 PUSH2 0x2D9F JUMP JUMPDEST PUSH1 0x40 MLOAD DUP1 SWAP2 SUB SWAP1 REVERT JUMPDEST STOP JUMPDEST CALLVALUE DUP1 ISZERO PUSH2 0x10B JUMPI PUSH1 0x0 DUP1 REVERT JUMPDEST POP PUSH2 0x11F PUSH2 0x11A CALLDATASIZE PUSH1 0x4 PUSH2 0x23E8 JUMP JUMPDEST PUSH2 0x234 JUMP JUMPDEST PUSH1 0x40 MLOAD PUSH2 0x12C SWAP2 SWAP1 PUSH2 0x2D91 JUMP JUMPDEST PUSH1 0x40 MLOAD DUP1 SWAP2 SUB SWAP1 RETURN JUMPDEST PUSH2 0x148 PUSH2 0x143 CALLDATASIZE PUSH1 0x4 PUSH2 0x24C6 JUMP JUMPDEST PUSH2 0x294 JUMP JUMPDEST PUSH1 0x40 MLOAD PUSH2 0x12C SWAP2 SWAP1 PUSH2 0x2E4F JUMP JUMPDEST CALLVALUE DUP1 ISZERO PUSH2 0x161 JUMPI PUSH1 0x0 DUP1 REVERT JUMPDEST POP PUSH2 0x148 PUSH2 0x170 CALLDATASIZE PUSH1 0x4 PUSH2 0x26A7 JUMP JUMPDEST PUSH2 0x560 JUMP JUMPDEST CALLVALUE DUP1 ISZERO PUSH2 0x181 JUMPI PUSH1 0x0 DUP1 REVERT JUMPDEST POP PUSH2 0x18A PUSH2 0x626 JUMP JUMPDEST PUSH1 0x40 MLOAD PUSH2 0x12C SWAP2 SWAP1 PUSH2 0x2EA0 JUMP JUMPDEST PUSH2 0x148 PUSH2 0x1A5 CALLDATASIZE PUSH1 0x4 PUSH2 0x25AC JUMP JUMPDEST PUSH2 0x62C JUMP JUMPDEST CALLVALUE DUP1 ISZERO PUSH2 0x1B6 JUMPI PUSH1 0x0 DUP1 REVERT JUMPDEST POP PUSH2 0x18A PUSH2 0x9FA JUMP JUMPDEST CALLVALUE DUP1 ISZERO PUSH2 0x1CB JUMPI PUSH1 0x0 DUP1 REVERT JUMPDEST POP PUSH2 0x18A PUSH2 0xA00 JUMP JUMPDEST CALLVALUE DUP1 ISZERO PUSH2 0x1E0 JUMPI PUSH1 0x0 DUP1 REVERT JUMPDEST POP PUSH2 0x148 PUSH2 0x1EF CALLDATASIZE PUSH1 0x4 PUSH2 0x26A7 JUMP JUMPDEST PUSH2 0xA06 JUMP JUMPDEST CALLVALUE DUP1 ISZERO PUSH2 0x200 JUMPI PUSH1 0x0 DUP1 REVERT JUMPDEST POP PUSH2 0x148 PUSH2 0x20F CALLDATASIZE PUSH1 0x4 PUSH2 0x26A7 JUMP JUMPDEST PUSH2 0xA79 JUMP JUMPDEST CALLVALUE DUP1 ISZERO PUSH2 0x220 JUMPI PUSH1 0x0 DUP1 REVERT JUMPDEST POP PUSH2 0x11F PUSH2 0x22F CALLDATASIZE PUSH1 0x4 PUSH2 0x2461 JUMP JUMPDEST PUSH2 0xB76 JUMP JUMPDEST PUSH1 0x40 DUP1 MLOAD PUSH32 0x6F6E455243373231526563656976656428616464726573732C61646472657373 DUP2 MSTORE PUSH32 0x2C75696E743235362C6279746573290000000000000000000000000000000000 PUSH1 0x20 DUP3 ADD MSTORE SWAP1 MLOAD SWAP1 DUP2 SWAP1 SUB PUSH1 0x2F ADD SWAP1 KECCAK256 SWAP5 SWAP4 POP POP POP POP JUMP JUMPDEST PUSH2 0x29C PUSH2 0x204B JUMP JUMPDEST CALLVALUE PUSH1 0x0 DUP1 DUP1 DUP1 DUP5 GT PUSH2 0x2DA JUMPI PUSH1 0x40 MLOAD PUSH32 0x8C379A000000000000000000000000000000000000000000000000000000000 DUP2 MSTORE PUSH1 0x4 ADD PUSH2 0xF4 SWAP1 PUSH2 0x2DCF JUMP JUMPDEST PUSH2 0x2E5 DUP5 DUP9 DUP9 PUSH2 0xBD6 JUMP JUMPDEST SWAP3 POP PUSH2 0x2F1 DUP5 DUP5 PUSH2 0xCA4 JUMP JUMPDEST SWAP2 POP PUSH1 0x1 PUSH1 0x0 SWAP1 SLOAD SWAP1 PUSH2 0x100 EXP SWAP1 DIV PUSH20 0xFFFFFFFFFFFFFFFFFFFFFFFFFFFFFFFFFFFFFFFF AND PUSH20 0xFFFFFFFFFFFFFFFFFFFFFFFFFFFFFFFFFFFFFFFF AND PUSH4 0xD0E30DB0 DUP4 PUSH1 0x40 MLOAD DUP3 PUSH4 0xFFFFFFFF AND PUSH29 0x100000000000000000000000000000000000000000000000000000000 MUL DUP2 MSTORE PUSH1 0x4 ADD PUSH1 0x0 PUSH1 0x40 MLOAD DUP1 DUP4 SUB DUP2 DUP6 DUP9 DUP1 EXTCODESIZE ISZERO DUP1 ISZERO PUSH2 0x379 JUMPI PUSH1 0x0 DUP1 REVERT JUMPDEST POP GAS CALL ISZERO DUP1 ISZERO PUSH2 0x38D JUMPI RETURNDATASIZE PUSH1 0x0 DUP1 RETURNDATACOPY RETURNDATASIZE PUSH1 0x0 REVERT JUMPDEST POP POP POP POP POP PUSH2 0x3BA DUP12 PUSH1 0x0 DUP2 MLOAD DUP2 LT ISZERO ISZERO PUSH2 0x3A4 JUMPI INVALID JUMPDEST SWAP1 PUSH1 0x20 ADD SWAP1 PUSH1 0x20 MUL ADD MLOAD PUSH2 0x140 ADD MLOAD PUSH1 0x10 PUSH2 0xCBB JUMP JUMPDEST PUSH1 0x4 DUP1 SLOAD PUSH1 0x40 DUP1 MLOAD PUSH1 0x20 PUSH1 0x1F PUSH1 0x2 PUSH32 0xFFFFFFFFFFFFFFFFFFFFFFFFFFFFFFFFFFFFFFFFFFFFFFFFFFFFFFFFFFFFFFFF PUSH2 0x100 PUSH1 0x1 DUP9 AND ISZERO MUL ADD SWAP1 SWAP6 AND SWAP5 SWAP1 SWAP5 DIV SWAP4 DUP5 ADD DUP2 SWAP1 DIV DUP2 MUL DUP3 ADD DUP2 ADD SWAP1 SWAP3 MSTORE DUP3 DUP2 MSTORE SWAP4 SWAP5 POP DUP4 ADD DUP3 DUP3 DUP1 ISZERO PUSH2 0x460 JUMPI DUP1 PUSH1 0x1F LT PUSH2 0x435 JUMPI PUSH2 0x100 DUP1 DUP4 SLOAD DIV MUL DUP4 MSTORE SWAP2 PUSH1 0x20 ADD SWAP2 PUSH2 0x460 JUMP JUMPDEST DUP3 ADD SWAP2 SWAP1 PUSH1 0x0 MSTORE PUSH1 0x20 PUSH1 0x0 KECCAK256 SWAP1 JUMPDEST DUP2 SLOAD DUP2 MSTORE SWAP1 PUSH1 0x1 ADD SWAP1 PUSH1 0x20 ADD DUP1 DUP4 GT PUSH2 0x443 JUMPI DUP3 SWAP1 SUB PUSH1 0x1F AND DUP3 ADD SWAP2 JUMPDEST POP POP POP POP POP DUP12 PUSH1 0x0 DUP2 MLOAD DUP2 LT ISZERO ISZERO PUSH2 0x474 JUMPI INVALID JUMPDEST PUSH1 0x20 SWAP1 DUP2 MUL SWAP1 SWAP2 ADD ADD MLOAD PUSH2 0x160 ADD MSTORE PUSH1 0x2 SLOAD PUSH20 0xFFFFFFFFFFFFFFFFFFFFFFFFFFFFFFFFFFFFFFFF DUP3 DUP2 AND SWAP2 AND EQ ISZERO PUSH2 0x4B8 JUMPI PUSH2 0x4B1 DUP12 DUP12 DUP5 PUSH2 0xD1C JUMP JUMPDEST SWAP5 POP PUSH2 0x4C8 JUMP JUMPDEST PUSH2 0x4C5 DUP12 DUP12 DUP12 DUP12 DUP7 PUSH2 0xE36 JUMP JUMPDEST SWAP5 POP JUMPDEST PUSH1 0x20 DUP6 ADD MLOAD DUP5 LT ISZERO PUSH2 0x506 JUMPI PUSH1 0x40 MLOAD PUSH32 0x8C379A000000000000000000000000000000000000000000000000000000000 DUP2 MSTORE PUSH1 0x4 ADD PUSH2 0xF4 SWAP1 PUSH2 0x2DAF JUMP JUMPDEST PUSH1 0x20 DUP6 ADD MLOAD DUP3 EQ PUSH2 0x543 JUMPI PUSH1 0x40 MLOAD PUSH32 0x8C379A000000000000000000000000000000000000000000000000000000000 DUP2 MSTORE PUSH1 0x4 ADD PUSH2 0xF4 SWAP1 PUSH2 0x2E0F JUMP JUMPDEST PUSH2 0x552 DUP2 CALLER DUP8 PUSH1 0x0 ADD MLOAD PUSH2 0xFBE JUMP JUMPDEST POP POP POP POP SWAP7 SWAP6 POP POP POP POP POP POP JUMP JUMPDEST PUSH2 0x568 PUSH2 0x204B JUMP JUMPDEST PUSH1 0x0 DUP1 PUSH1 0x0 PUSH2 0x575 PUSH2 0x204B JUMP JUMPDEST PUSH1 0x0 SWAP4 POP JUMPDEST DUP7 MLOAD DUP5 LT ISZERO PUSH2 0x61C JUMPI PUSH2 0x591 DUP7 DUP7 PUSH1 0x0 ADD MLOAD PUSH2 0xCA4 JUMP JUMPDEST SWAP3 POP PUSH2 0x5D4 DUP8 DUP6 DUP2 MLOAD DUP2 LT ISZERO ISZERO PUSH2 0x5A4 JUMPI INVALID JUMPDEST SWAP1 PUSH1 0x20 ADD SWAP1 PUSH1 0x20 MUL ADD MLOAD PUSH1 0xA0 ADD MLOAD DUP9 DUP7 DUP2 MLOAD DUP2 LT ISZERO ISZERO PUSH2 0x5C0 JUMPI INVALID JUMPDEST SWAP1 PUSH1 0x20 ADD SWAP1 PUSH1 0x20 MUL ADD MLOAD PUSH1 0x80 ADD MLOAD DUP6 PUSH2 0x1198 JUMP JUMPDEST SWAP2 POP PUSH2 0x5F7 DUP8 DUP6 DUP2 MLOAD DUP2 LT ISZERO ISZERO PUSH2 0x5E7 JUMPI INVALID JUMPDEST SWAP1 PUSH1 0x20 ADD SWAP1 PUSH1 0x20 MUL ADD MLOAD DUP4 PUSH2 0x11B5 JUMP JUMPDEST SWAP1 POP PUSH2 0x603 DUP6 DUP3 PUSH2 0x12FE JUMP JUMPDEST DUP5 MLOAD DUP7 EQ ISZERO PUSH2 0x611 JUMPI PUSH2 0x61C JUMP JUMPDEST PUSH1 0x1 SWAP1 SWAP4 ADD SWAP3 PUSH2 0x57A JUMP JUMPDEST POP POP POP POP SWAP3 SWAP2 POP POP JUMP JUMPDEST PUSH2 0x251C DUP2 JUMP JUMPDEST PUSH2 0x634 PUSH2 0x204B JUMP JUMPDEST CALLVALUE PUSH1 0x0 DUP1 DUP3 GT PUSH2 0x670 JUMPI PUSH1 0x40 MLOAD PUSH32 0x8C379A000000000000000000000000000000000000000000000000000000000 DUP2 MSTORE PUSH1 0x4 ADD PUSH2 0xF4 SWAP1 PUSH2 0x2DCF JUMP JUMPDEST PUSH1 0x0 DUP7 GT PUSH2 0x6AA JUMPI PUSH1 0x40 MLOAD PUSH32 0x8C379A000000000000000000000000000000000000000000000000000000000 DUP2 MSTORE PUSH1 0x4 ADD PUSH2 0xF4 SWAP1 PUSH2 0x2DCF JUMP JUMPDEST PUSH2 0x6D2 DUP11 PUSH1 0x0 DUP2 MLOAD DUP2 LT ISZERO ISZERO PUSH2 0x6BC JUMPI INVALID JUMPDEST SWAP1 PUSH1 0x20 ADD SWAP1 PUSH1 0x20 MUL ADD MLOAD PUSH2 0x140 ADD MLOAD PUSH1 0x0 PUSH2 0x1360 JUMP JUMPDEST PUSH1 0x40 DUP1 MLOAD PUSH32 0x4552433230546F6B656E28616464726573732900000000000000000000000000 DUP2 MSTORE SWAP1 MLOAD SWAP1 DUP2 SWAP1 SUB PUSH1 0x13 ADD SWAP1 KECCAK256 SWAP1 SWAP2 POP PUSH32 0xFFFFFFFF00000000000000000000000000000000000000000000000000000000 DUP1 DUP4 AND SWAP2 AND EQ DUP1 PUSH2 0x7B4 JUMPI POP PUSH1 0x40 DUP1 MLOAD PUSH32 0x455243373231546F6B656E28616464726573732C75696E743235362C62797465 DUP2 MSTORE PUSH32 0x7329000000000000000000000000000000000000000000000000000000000000 PUSH1 0x20 DUP3 ADD MSTORE SWAP1 MLOAD SWAP1 DUP2 SWAP1 SUB PUSH1 0x22 ADD SWAP1 KECCAK256 PUSH32 0xFFFFFFFF00000000000000000000000000000000000000000000000000000000 DUP3 DUP2 AND SWAP2 AND EQ JUMPDEST ISZERO ISZERO PUSH2 0x7EC JUMPI PUSH1 0x40 MLOAD PUSH32 0x8C379A000000000000000000000000000000000000000000000000000000000 DUP2 MSTORE PUSH1 0x4 ADD PUSH2 0xF4 SWAP1 PUSH2 0x2E2F JUMP JUMPDEST PUSH1 0x1 PUSH1 0x0 SWAP1 SLOAD SWAP1 PUSH2 0x100 EXP SWAP1 DIV PUSH20 0xFFFFFFFFFFFFFFFFFFFFFFFFFFFFFFFFFFFFFFFF AND PUSH20 0xFFFFFFFFFFFFFFFFFFFFFFFFFFFFFFFFFFFFFFFF AND PUSH4 0xD0E30DB0 DUP4 PUSH1 0x40 MLOAD DUP3 PUSH4 0xFFFFFFFF AND PUSH29 0x100000000000000000000000000000000000000000000000000000000 MUL DUP2 MSTORE PUSH1 0x4 ADD PUSH1 0x0 PUSH1 0x40 MLOAD DUP1 DUP4 SUB DUP2 DUP6 DUP9 DUP1 EXTCODESIZE ISZERO DUP1 ISZERO PUSH2 0x872 JUMPI PUSH1 0x0 DUP1 REVERT JUMPDEST POP GAS CALL ISZERO DUP1 ISZERO PUSH2 0x886 JUMPI RETURNDATASIZE PUSH1 0x0 DUP1 RETURNDATACOPY RETURNDATASIZE PUSH1 0x0 REVERT JUMPDEST POP POP PUSH1 0x40 DUP1 MLOAD PUSH32 0x4552433230546F6B656E28616464726573732900000000000000000000000000 DUP2 MSTORE SWAP1 MLOAD SWAP1 DUP2 SWAP1 SUB PUSH1 0x13 ADD SWAP1 KECCAK256 PUSH32 0xFFFFFFFF00000000000000000000000000000000000000000000000000000000 DUP6 DUP2 AND SWAP2 AND EQ ISZERO SWAP3 POP PUSH2 0x8FF SWAP2 POP POP JUMPI PUSH2 0x8F8 DUP11 DUP11 DUP11 DUP11 DUP11 PUSH2 0x13CD JUMP JUMPDEST SWAP3 POP PUSH2 0x992 JUMP JUMPDEST PUSH1 0x40 DUP1 MLOAD PUSH32 0x455243373231546F6B656E28616464726573732C75696E743235362C62797465 DUP2 MSTORE PUSH32 0x7329000000000000000000000000000000000000000000000000000000000000 PUSH1 0x20 DUP3 ADD MSTORE SWAP1 MLOAD SWAP1 DUP2 SWAP1 SUB PUSH1 0x22 ADD SWAP1 KECCAK256 PUSH32 0xFFFFFFFF00000000000000000000000000000000000000000000000000000000 DUP3 DUP2 AND SWAP2 AND EQ ISZERO PUSH2 0x992 JUMPI PUSH2 0x98F DUP11 DUP11 DUP11 DUP11 PUSH2 0x1724 JUMP JUMPDEST SWAP3 POP JUMPDEST PUSH1 0x20 DUP4 ADD MLOAD DUP3 LT ISZERO PUSH2 0x9D0 JUMPI PUSH1 0x40 MLOAD PUSH32 0x8C379A000000000000000000000000000000000000000000000000000000000 DUP2 MSTORE PUSH1 0x4 ADD PUSH2 0xF4 SWAP1 PUSH2 0x2DAF JUMP JUMPDEST PUSH2 0x9ED PUSH2 0x9E1 DUP4 DUP6 PUSH1 0x20 ADD MLOAD PUSH2 0xCA4 JUMP JUMPDEST DUP5 PUSH1 0x20 ADD MLOAD DUP8 DUP8 PUSH2 0x1A26 JUMP JUMPDEST POP POP SWAP8 SWAP7 POP POP POP POP POP POP POP JUMP JUMPDEST PUSH2 0x2710 DUP2 JUMP JUMPDEST PUSH2 0x3E8 DUP2 JUMP JUMPDEST PUSH2 0xA0E PUSH2 0x204B JUMP JUMPDEST PUSH1 0x0 DUP1 PUSH2 0xA19 PUSH2 0x204B JUMP JUMPDEST PUSH1 0x0 SWAP3 POP JUMPDEST DUP6 MLOAD DUP4 LT ISZERO PUSH2 0xA70 JUMPI PUSH2 0xA35 DUP6 DUP6 PUSH1 0x20 ADD MLOAD PUSH2 0xCA4 JUMP JUMPDEST SWAP2 POP PUSH2 0xA48 DUP7 DUP5 DUP2 MLOAD DUP2 LT ISZERO ISZERO PUSH2 0x5E7 JUMPI INVALID JUMPDEST SWAP1 POP PUSH2 0xA54 DUP5 DUP3 PUSH2 0x12FE JUMP JUMPDEST DUP5 DUP5 PUSH1 0x20 ADD MLOAD EQ ISZERO PUSH2 0xA65 JUMPI PUSH2 0xA70 JUMP JUMPDEST PUSH1 0x1 SWAP1 SWAP3 ADD SWAP2 PUSH2 0xA1E JUMP JUMPDEST POP POP POP SWAP3 SWAP2 POP POP JUMP JUMPDEST PUSH2 0xA81 PUSH2 0x204B JUMP JUMPDEST PUSH1 0x0 DUP1 PUSH1 0x0 PUSH2 0xA8E PUSH2 0x204B JUMP JUMPDEST PUSH1 0x0 SWAP4 POP JUMPDEST DUP7 MLOAD DUP5 LT ISZERO PUSH2 0x61C JUMPI PUSH2 0xAAA DUP7 DUP7 PUSH1 0x0 ADD MLOAD PUSH2 0xCA4 JUMP JUMPDEST SWAP3 POP PUSH2 0xB11 DUP8 DUP6 DUP2 MLOAD DUP2 LT ISZERO ISZERO PUSH2 0xABD JUMPI INVALID JUMPDEST SWAP1 PUSH1 0x20 ADD SWAP1 PUSH1 0x20 MUL ADD MLOAD PUSH1 0xA0 ADD MLOAD PUSH2 0xB0B DUP10 DUP8 DUP2 MLOAD DUP2 LT ISZERO ISZERO PUSH2 0xADC JUMPI INVALID JUMPDEST SWAP1 PUSH1 0x20 ADD SWAP1 PUSH1 0x20 MUL ADD MLOAD PUSH1 0x80 ADD MLOAD DUP11 DUP9 DUP2 MLOAD DUP2 LT ISZERO ISZERO PUSH2 0xAF8 JUMPI INVALID JUMPDEST SWAP1 PUSH1 0x20 ADD SWAP1 PUSH1 0x20 MUL ADD MLOAD PUSH1 0xE0 ADD MLOAD PUSH2 0xCA4 JUMP JUMPDEST DUP6 PUSH2 0x1198 JUMP JUMPDEST SWAP2 POP PUSH2 0xB3E DUP8 DUP6 DUP2 MLOAD DUP2 LT ISZERO ISZERO PUSH2 0xB24 JUMPI INVALID JUMPDEST SWAP1 PUSH1 0x20 ADD SWAP1 PUSH1 0x20 MUL ADD MLOAD PUSH2 0xB39 DUP5 PUSH1 0x1 PUSH2 0x1B13 JUMP JUMPDEST PUSH2 0x11B5 JUMP JUMPDEST SWAP1 POP PUSH2 0xB52 DUP2 PUSH1 0x0 ADD MLOAD DUP3 PUSH1 0x60 ADD MLOAD PUSH2 0xCA4 JUMP JUMPDEST DUP2 MSTORE PUSH2 0xB5E DUP6 DUP3 PUSH2 0x12FE JUMP JUMPDEST DUP5 MLOAD DUP7 GT PUSH2 0xB6B JUMPI PUSH2 0x61C JUMP JUMPDEST PUSH1 0x1 SWAP1 SWAP4 ADD SWAP3 PUSH2 0xA93 JUMP JUMPDEST PUSH1 0x40 DUP1 MLOAD PUSH32 0x6F6E455243373231526563656976656428616464726573732C75696E74323536 DUP2 MSTORE PUSH32 0x2C62797465732900000000000000000000000000000000000000000000000000 PUSH1 0x20 DUP3 ADD MSTORE SWAP1 MLOAD SWAP1 DUP2 SWAP1 SUB PUSH1 0x27 ADD SWAP1 KECCAK256 JUMPDEST SWAP4 SWAP3 POP POP POP JUMP JUMPDEST PUSH1 0x0 DUP1 DUP4 PUSH2 0xFFFF AND GT DUP1 ISZERO PUSH2 0xC00 JUMPI POP PUSH20 0xFFFFFFFFFFFFFFFFFFFFFFFFFFFFFFFFFFFFFFFF DUP3 AND ISZERO ISZERO JUMPDEST ISZERO PUSH2 0xBCF JUMPI PUSH2 0x3E8 PUSH2 0xFFFF DUP5 AND GT ISZERO PUSH2 0xC45 JUMPI PUSH1 0x40 MLOAD PUSH32 0x8C379A000000000000000000000000000000000000000000000000000000000 DUP2 MSTORE PUSH1 0x4 ADD PUSH2 0xF4 SWAP1 PUSH2 0x2DEF JUMP JUMPDEST PUSH2 0xC56 PUSH2 0xFFFF DUP5 AND PUSH2 0x2710 DUP7 PUSH2 0x1198 JUMP JUMPDEST PUSH1 0x40 MLOAD SWAP1 SWAP2 POP PUSH20 0xFFFFFFFFFFFFFFFFFFFFFFFFFFFFFFFFFFFFFFFF DUP4 AND SWAP1 DUP3 ISZERO PUSH2 0x8FC MUL SWAP1 DUP4 SWAP1 PUSH1 0x0 DUP2 DUP2 DUP2 DUP6 DUP9 DUP9 CALL SWAP4 POP POP POP POP ISZERO DUP1 ISZERO PUSH2 0xC9C JUMPI RETURNDATASIZE PUSH1 0x0 DUP1 RETURNDATACOPY RETURNDATASIZE PUSH1 0x0 REVERT JUMPDEST POP SWAP4 SWAP3 POP POP POP JUMP JUMPDEST PUSH1 0x0 DUP3 DUP3 GT ISZERO PUSH2 0xCB0 JUMPI INVALID JUMPDEST POP DUP1 DUP3 SUB JUMPDEST SWAP3 SWAP2 POP POP JUMP JUMPDEST PUSH1 0x0 DUP2 PUSH1 0x14 ADD DUP4 MLOAD LT ISZERO ISZERO ISZERO PUSH2 0xCFD JUMPI PUSH1 0x40 MLOAD PUSH32 0x8C379A000000000000000000000000000000000000000000000000000000000 DUP2 MSTORE PUSH1 0x4 ADD PUSH2 0xF4 SWAP1 PUSH2 0x2E1F JUMP JUMPDEST POP ADD PUSH1 0x14 ADD MLOAD PUSH20 0xFFFFFFFFFFFFFFFFFFFFFFFFFFFFFFFFFFFFFFFF AND SWAP1 JUMP JUMPDEST PUSH2 0xD24 PUSH2 0x204B JUMP JUMPDEST PUSH1 0x0 DUP1 SLOAD PUSH1 0x40 MLOAD PUSH32 0x7E1D980800000000000000000000000000000000000000000000000000000000 DUP2 MSTORE PUSH20 0xFFFFFFFFFFFFFFFFFFFFFFFFFFFFFFFFFFFFFFFF SWAP1 SWAP2 AND SWAP1 PUSH4 0x7E1D9808 SWAP1 PUSH2 0xD7F SWAP1 DUP9 SWAP1 DUP8 SWAP1 DUP10 SWAP1 PUSH1 0x4 ADD PUSH2 0x2D5F JUMP JUMPDEST PUSH1 0x80 PUSH1 0x40 MLOAD DUP1 DUP4 SUB DUP2 PUSH1 0x0 DUP8 DUP1 EXTCODESIZE ISZERO DUP1 ISZERO PUSH2 0xD99 JUMPI PUSH1 0x0 DUP1 REVERT JUMPDEST POP GAS CALL ISZERO DUP1 ISZERO PUSH2 0xDAD JUMPI RETURNDATASIZE PUSH1 0x0 DUP1 RETURNDATACOPY RETURNDATASIZE PUSH1 0x0 REVERT JUMPDEST POP POP POP POP PUSH1 0x40 MLOAD RETURNDATASIZE PUSH1 0x1F NOT PUSH1 0x1F DUP3 ADD AND DUP3 ADD DUP1 PUSH1 0x40 MSTORE POP PUSH2 0xDD1 SWAP2 SWAP1 DUP2 ADD SWAP1 PUSH2 0x26F8 JUMP JUMPDEST SWAP2 POP PUSH2 0xDE5 DUP3 PUSH1 0x0 ADD MLOAD DUP4 PUSH1 0x60 ADD MLOAD PUSH2 0xCA4 JUMP JUMPDEST SWAP1 POP PUSH2 0xDF5 DUP3 PUSH1 0x0 ADD MLOAD DUP3 PUSH2 0x1B22 JUMP JUMPDEST ISZERO ISZERO PUSH2 0xE2D JUMPI PUSH1 0x40 MLOAD PUSH32 0x8C379A000000000000000000000000000000000000000000000000000000000 DUP2 MSTORE PUSH1 0x4 ADD PUSH2 0xF4 SWAP1 PUSH2 0x2E0F JUMP JUMPDEST DUP2 MSTORE SWAP4 SWAP3 POP POP POP JUMP JUMPDEST PUSH2 0xE3E PUSH2 0x204B JUMP JUMPDEST PUSH1 0x0 PUSH2 0xE48 PUSH2 0x204B JUMP JUMPDEST PUSH2 0xE50 PUSH2 0x204B JUMP JUMPDEST PUSH2 0xE58 PUSH2 0x204B JUMP JUMPDEST DUP6 SWAP4 POP PUSH2 0xE65 DUP11 DUP8 PUSH2 0xA06 JUMP JUMPDEST SWAP3 POP PUSH1 0x0 DUP4 PUSH1 0x60 ADD MLOAD GT ISZERO PUSH2 0xEF9 JUMPI PUSH2 0xE83 DUP9 DUP9 DUP6 PUSH1 0x60 ADD MLOAD PUSH2 0x1B3F JUMP JUMPDEST SWAP2 POP PUSH2 0xE9C DUP7 PUSH2 0xE97 DUP9 DUP6 PUSH1 0x20 ADD MLOAD PUSH2 0xCA4 JUMP JUMPDEST PUSH2 0x1B22 JUMP JUMPDEST ISZERO ISZERO PUSH2 0xED4 JUMPI PUSH1 0x40 MLOAD PUSH32 0x8C379A000000000000000000000000000000000000000000000000000000000 DUP2 MSTORE PUSH1 0x4 ADD PUSH2 0xF4 SWAP1 PUSH2 0x2E0F JUMP JUMPDEST PUSH2 0xEE2 DUP5 DUP4 PUSH1 0x20 ADD MLOAD PUSH2 0xCA4 JUMP JUMPDEST PUSH1 0x60 DUP1 DUP5 ADD MLOAD SWAP1 DUP8 ADD MSTORE PUSH1 0x20 DUP1 DUP5 ADD MLOAD SWAP1 DUP8 ADD MSTORE SWAP4 POP JUMPDEST PUSH1 0x0 SLOAD PUSH1 0x40 MLOAD PUSH32 0x7E1D980800000000000000000000000000000000000000000000000000000000 DUP2 MSTORE PUSH20 0xFFFFFFFFFFFFFFFFFFFFFFFFFFFFFFFFFFFFFFFF SWAP1 SWAP2 AND SWAP1 PUSH4 0x7E1D9808 SWAP1 PUSH2 0xF53 SWAP1 DUP14 SWAP1 DUP9 SWAP1 DUP15 SWAP1 PUSH1 0x4 ADD PUSH2 0x2D5F JUMP JUMPDEST PUSH1 0x80 PUSH1 0x40 MLOAD DUP1 DUP4 SUB DUP2 PUSH1 0x0 DUP8 DUP1 EXTCODESIZE ISZERO DUP1 ISZERO PUSH2 0xF6D JUMPI PUSH1 0x0 DUP1 REVERT JUMPDEST POP GAS CALL ISZERO DUP1 ISZERO PUSH2 0xF81 JUMPI RETURNDATASIZE PUSH1 0x0 DUP1 RETURNDATACOPY RETURNDATASIZE PUSH1 0x0 REVERT JUMPDEST POP POP POP POP PUSH1 0x40 MLOAD RETURNDATASIZE PUSH1 0x1F NOT PUSH1 0x1F DUP3 ADD AND DUP3 ADD DUP1 PUSH1 0x40 MSTORE POP PUSH2 0xFA5 SWAP2 SWAP1 DUP2 ADD SWAP1 PUSH2 0x26F8 JUMP JUMPDEST SWAP1 POP PUSH2 0xFB1 DUP6 DUP3 PUSH2 0x12FE JUMP JUMPDEST POP POP POP POP SWAP6 SWAP5 POP POP POP POP POP JUMP JUMPDEST PUSH1 0x40 DUP1 MLOAD PUSH32 0x7472616E7366657228616464726573732C75696E743235362900000000000000 DUP2 MSTORE SWAP1 MLOAD SWAP1 DUP2 SWAP1 SUB PUSH1 0x19 ADD DUP2 KECCAK256 PUSH1 0x0 SWAP2 PUSH20 0xFFFFFFFFFFFFFFFFFFFFFFFFFFFFFFFFFFFFFFFF DUP7 AND SWAP2 SWAP1 PUSH2 0x101C SWAP1 DUP7 SWAP1 DUP7 SWAP1 PUSH1 0x24 ADD PUSH2 0x2D0B JUMP JUMPDEST PUSH1 0x40 DUP1 MLOAD PUSH32 0xFFFFFFFFFFFFFFFFFFFFFFFFFFFFFFFFFFFFFFFFFFFFFFFFFFFFFFFFFFFFFFE0 DUP2 DUP5 SUB ADD DUP2 MSTORE SWAP2 DUP2 MSTORE PUSH1 0x20 DUP3 ADD DUP1 MLOAD PUSH28 0xFFFFFFFFFFFFFFFFFFFFFFFFFFFFFFFFFFFFFFFFFFFFFFFFFFFFFFFF AND PUSH32 0xFFFFFFFF00000000000000000000000000000000000000000000000000000000 SWAP1 SWAP5 AND SWAP4 SWAP1 SWAP4 OR DUP4 MSTORE MLOAD DUP2 MLOAD SWAP2 SWAP3 SWAP1 SWAP2 DUP3 SWAP2 SWAP1 DUP1 DUP4 DUP4 PUSH1 0x0 JUMPDEST DUP4 DUP2 LT ISZERO PUSH2 0x10C0 JUMPI DUP2 DUP2 ADD MLOAD DUP4 DUP3 ADD MSTORE PUSH1 0x20 ADD PUSH2 0x10A8 JUMP JUMPDEST POP POP POP POP SWAP1 POP SWAP1 DUP2 ADD SWAP1 PUSH1 0x1F AND DUP1 ISZERO PUSH2 0x10ED JUMPI DUP1 DUP3 SUB DUP1 MLOAD PUSH1 0x1 DUP4 PUSH1 0x20 SUB PUSH2 0x100 EXP SUB NOT AND DUP2 MSTORE PUSH1 0x20 ADD SWAP2 POP JUMPDEST POP SWAP2 POP POP PUSH1 0x0 PUSH1 0x40 MLOAD DUP1 DUP4 SUB DUP2 PUSH1 0x0 DUP7 GAS CALL SWAP3 POP POP POP DUP1 ISZERO ISZERO PUSH2 0x113C JUMPI PUSH1 0x40 MLOAD PUSH32 0x8C379A000000000000000000000000000000000000000000000000000000000 DUP2 MSTORE PUSH1 0x4 ADD PUSH2 0xF4 SWAP1 PUSH2 0x2DFF JUMP JUMPDEST RETURNDATASIZE ISZERO PUSH2 0x1159 JUMPI POP PUSH1 0x0 RETURNDATASIZE PUSH1 0x20 EQ ISZERO PUSH2 0x1159 JUMPI PUSH1 0x20 PUSH1 0x0 DUP1 RETURNDATACOPY POP PUSH1 0x0 MLOAD JUMPDEST DUP1 ISZERO ISZERO PUSH2 0x1192 JUMPI PUSH1 0x40 MLOAD PUSH32 0x8C379A000000000000000000000000000000000000000000000000000000000 DUP2 MSTORE PUSH1 0x4 ADD PUSH2 0xF4 SWAP1 PUSH2 0x2DFF JUMP JUMPDEST POP POP POP POP JUMP JUMPDEST PUSH1 0x0 PUSH2 0x11AD PUSH2 0x11A7 DUP6 DUP5 PUSH2 0x1E78 JUMP JUMPDEST DUP5 PUSH2 0x1E9C JUMP JUMPDEST SWAP5 SWAP4 POP POP POP POP JUMP JUMPDEST PUSH2 0x11BD PUSH2 0x204B JUMP JUMPDEST PUSH2 0x11C5 PUSH2 0x2074 JUMP JUMPDEST PUSH1 0x0 DUP1 SLOAD PUSH1 0x40 MLOAD PUSH32 0xC75E0A8100000000000000000000000000000000000000000000000000000000 DUP2 MSTORE DUP3 SWAP2 PUSH20 0xFFFFFFFFFFFFFFFFFFFFFFFFFFFFFFFFFFFFFFFF AND SWAP1 PUSH4 0xC75E0A81 SWAP1 PUSH2 0x121C SWAP1 DUP10 SWAP1 PUSH1 0x4 ADD PUSH2 0x2E5D JUMP JUMPDEST PUSH1 0x60 PUSH1 0x40 MLOAD DUP1 DUP4 SUB DUP2 PUSH1 0x0 DUP8 DUP1 EXTCODESIZE ISZERO DUP1 ISZERO PUSH2 0x1236 JUMPI PUSH1 0x0 DUP1 REVERT JUMPDEST POP GAS CALL ISZERO DUP1 ISZERO PUSH2 0x124A JUMPI RETURNDATASIZE PUSH1 0x0 DUP1 RETURNDATACOPY RETURNDATASIZE PUSH1 0x0 REVERT JUMPDEST POP POP POP POP PUSH1 0x40 MLOAD RETURNDATASIZE PUSH1 0x1F NOT PUSH1 0x1F DUP3 ADD AND DUP3 ADD DUP1 PUSH1 0x40 MSTORE POP PUSH2 0x126E SWAP2 SWAP1 DUP2 ADD SWAP1 PUSH2 0x2716 JUMP JUMPDEST DUP1 MLOAD SWAP1 SWAP4 POP PUSH1 0xFF AND PUSH1 0x3 EQ PUSH2 0x1282 JUMPI PUSH2 0xA70 JUMP JUMPDEST PUSH2 0x1294 DUP7 PUSH1 0xA0 ADD MLOAD DUP5 PUSH1 0x40 ADD MLOAD PUSH2 0xCA4 JUMP JUMPDEST SWAP2 POP PUSH2 0x12A0 DUP6 DUP4 PUSH2 0x1EB3 JUMP JUMPDEST SWAP1 POP DUP1 DUP5 PUSH1 0x20 ADD DUP2 DUP2 MSTORE POP POP PUSH2 0x12BF DUP2 DUP8 PUSH1 0xA0 ADD MLOAD DUP9 PUSH1 0x80 ADD MLOAD PUSH2 0x1198 JUMP JUMPDEST DUP5 MSTORE PUSH1 0xA0 DUP7 ADD MLOAD PUSH1 0xC0 DUP8 ADD MLOAD PUSH2 0x12D6 SWAP2 DUP4 SWAP2 PUSH2 0x1198 JUMP JUMPDEST PUSH1 0x40 DUP6 ADD MSTORE PUSH1 0xA0 DUP7 ADD MLOAD PUSH1 0xE0 DUP8 ADD MLOAD PUSH2 0x12F0 SWAP2 DUP4 SWAP2 PUSH2 0x1198 JUMP JUMPDEST PUSH1 0x60 DUP6 ADD MSTORE POP POP POP SWAP3 SWAP2 POP POP JUMP JUMPDEST DUP2 MLOAD DUP2 MLOAD PUSH2 0x130C SWAP2 SWAP1 PUSH2 0x1B13 JUMP JUMPDEST DUP3 MSTORE PUSH1 0x20 DUP1 DUP4 ADD MLOAD SWAP1 DUP3 ADD MLOAD PUSH2 0x1322 SWAP2 SWAP1 PUSH2 0x1B13 JUMP JUMPDEST PUSH1 0x20 DUP4 ADD MSTORE PUSH1 0x40 DUP1 DUP4 ADD MLOAD SWAP1 DUP3 ADD MLOAD PUSH2 0x133B SWAP2 SWAP1 PUSH2 0x1B13 JUMP JUMPDEST PUSH1 0x40 DUP4 ADD MSTORE PUSH1 0x60 DUP1 DUP4 ADD MLOAD SWAP1 DUP3 ADD MLOAD PUSH2 0x1354 SWAP2 SWAP1 PUSH2 0x1B13 JUMP JUMPDEST PUSH1 0x60 SWAP1 SWAP3 ADD SWAP2 SWAP1 SWAP2 MSTORE POP JUMP JUMPDEST PUSH1 0x0 DUP2 PUSH1 0x4 ADD DUP4 MLOAD LT ISZERO ISZERO ISZERO PUSH2 0x13A2 JUMPI PUSH1 0x40 MLOAD PUSH32 0x8C379A000000000000000000000000000000000000000000000000000000000 DUP2 MSTORE PUSH1 0x4 ADD PUSH2 0xF4 SWAP1 PUSH2 0x2E3F JUMP JUMPDEST POP POP PUSH1 0x20 ADD MLOAD PUSH32 0xFFFFFFFF00000000000000000000000000000000000000000000000000000000 AND SWAP1 JUMP JUMPDEST PUSH2 0x13D5 PUSH2 0x204B JUMP JUMPDEST PUSH1 0x0 PUSH2 0x13DF PUSH2 0x204B JUMP JUMPDEST PUSH2 0x13E7 PUSH2 0x204B JUMP JUMPDEST PUSH2 0x13EF PUSH2 0x204B JUMP JUMPDEST PUSH2 0x1401 DUP11 PUSH1 0x0 DUP2 MLOAD DUP2 LT ISZERO ISZERO PUSH2 0x3A4 JUMPI INVALID JUMPDEST PUSH1 0x4 DUP1 SLOAD PUSH1 0x40 DUP1 MLOAD PUSH1 0x20 PUSH1 0x1F PUSH1 0x2 PUSH32 0xFFFFFFFFFFFFFFFFFFFFFFFFFFFFFFFFFFFFFFFFFFFFFFFFFFFFFFFFFFFFFFFF PUSH2 0x100 PUSH1 0x1 DUP9 AND ISZERO MUL ADD SWAP1 SWAP6 AND SWAP5 SWAP1 SWAP5 DIV SWAP4 DUP5 ADD DUP2 SWAP1 DIV DUP2 MUL DUP3 ADD DUP2 ADD SWAP1 SWAP3 MSTORE DUP3 DUP2 MSTORE SWAP4 SWAP8 POP DUP4 ADD DUP3 DUP3 DUP1 ISZERO PUSH2 0x14A7 JUMPI DUP1 PUSH1 0x1F LT PUSH2 0x147C JUMPI PUSH2 0x100 DUP1 DUP4 SLOAD DIV MUL DUP4 MSTORE SWAP2 PUSH1 0x20 ADD SWAP2 PUSH2 0x14A7 JUMP JUMPDEST DUP3 ADD SWAP2 SWAP1 PUSH1 0x0 MSTORE PUSH1 0x20 PUSH1 0x0 KECCAK256 SWAP1 JUMPDEST DUP2 SLOAD DUP2 MSTORE SWAP1 PUSH1 0x1 ADD SWAP1 PUSH1 0x20 ADD DUP1 DUP4 GT PUSH2 0x148A JUMPI DUP3 SWAP1 SUB PUSH1 0x1F AND DUP3 ADD SWAP2 JUMPDEST POP POP POP POP POP DUP11 PUSH1 0x0 DUP2 MLOAD DUP2 LT ISZERO ISZERO PUSH2 0x14BB JUMPI INVALID JUMPDEST PUSH1 0x20 SWAP1 DUP2 MUL SWAP1 SWAP2 ADD ADD MLOAD PUSH2 0x160 ADD MSTORE PUSH1 0x2 SLOAD PUSH20 0xFFFFFFFFFFFFFFFFFFFFFFFFFFFFFFFFFFFFFFFF DUP6 DUP2 AND SWAP2 AND EQ ISZERO PUSH2 0x1599 JUMPI PUSH2 0x14F8 DUP11 DUP11 DUP9 PUSH2 0x1B3F JUMP JUMPDEST DUP1 MLOAD SWAP1 SWAP4 POP DUP7 GT ISZERO PUSH2 0x1536 JUMPI PUSH1 0x40 MLOAD PUSH32 0x8C379A000000000000000000000000000000000000000000000000000000000 DUP2 MSTORE PUSH1 0x4 ADD PUSH2 0xF4 SWAP1 PUSH2 0x2E0F JUMP JUMPDEST PUSH2 0x1540 DUP6 DUP5 PUSH2 0x12FE JUMP JUMPDEST PUSH2 0x155C PUSH2 0x1555 DUP7 PUSH1 0x0 ADD MLOAD DUP8 PUSH1 0x60 ADD MLOAD PUSH2 0x1B13 JUMP JUMPDEST DUP7 MLOAD PUSH2 0x1B22 JUMP JUMPDEST ISZERO ISZERO PUSH2 0x1594 JUMPI PUSH1 0x40 MLOAD PUSH32 0x8C379A000000000000000000000000000000000000000000000000000000000 DUP2 MSTORE PUSH1 0x4 ADD PUSH2 0xF4 SWAP1 PUSH2 0x2E0F JUMP JUMPDEST PUSH2 0x1715 JUMP JUMPDEST PUSH2 0x15A3 DUP11 DUP8 PUSH2 0x560 JUMP JUMPDEST SWAP2 POP PUSH1 0x0 DUP3 PUSH1 0x60 ADD MLOAD GT ISZERO PUSH2 0x15D8 JUMPI PUSH2 0x15C1 DUP9 DUP9 DUP5 PUSH1 0x60 ADD MLOAD PUSH2 0x1B3F JUMP JUMPDEST PUSH1 0x20 DUP1 DUP3 ADD MLOAD SWAP1 DUP8 ADD MSTORE PUSH1 0x60 DUP1 DUP3 ADD MLOAD SWAP1 DUP8 ADD MSTORE SWAP1 POP JUMPDEST PUSH1 0x0 SLOAD PUSH1 0x40 MLOAD PUSH32 0xE5FA431B00000000000000000000000000000000000000000000000000000000 DUP2 MSTORE PUSH20 0xFFFFFFFFFFFFFFFFFFFFFFFFFFFFFFFFFFFFFFFF SWAP1 SWAP2 AND SWAP1 PUSH4 0xE5FA431B SWAP1 PUSH2 0x1632 SWAP1 DUP14 SWAP1 DUP11 SWAP1 DUP15 SWAP1 PUSH1 0x4 ADD PUSH2 0x2D5F JUMP JUMPDEST PUSH1 0x80 PUSH1 0x40 MLOAD DUP1 DUP4 SUB DUP2 PUSH1 0x0 DUP8 DUP1 EXTCODESIZE ISZERO DUP1 ISZERO PUSH2 0x164C JUMPI PUSH1 0x0 DUP1 REVERT JUMPDEST POP GAS CALL ISZERO DUP1 ISZERO PUSH2 0x1660 JUMPI RETURNDATASIZE PUSH1 0x0 DUP1 RETURNDATACOPY RETURNDATASIZE PUSH1 0x0 REVERT JUMPDEST POP POP POP POP PUSH1 0x40 MLOAD RETURNDATASIZE PUSH1 0x1F NOT PUSH1 0x1F DUP3 ADD AND DUP3 ADD DUP1 PUSH1 0x40 MSTORE POP PUSH2 0x1684 SWAP2 SWAP1 DUP2 ADD SWAP1 PUSH2 0x26F8 JUMP JUMPDEST DUP1 MLOAD SWAP1 SWAP4 POP DUP7 EQ PUSH2 0x16C1 JUMPI PUSH1 0x40 MLOAD PUSH32 0x8C379A000000000000000000000000000000000000000000000000000000000 DUP2 MSTORE PUSH1 0x4 ADD PUSH2 0xF4 SWAP1 PUSH2 0x2E0F JUMP JUMPDEST PUSH2 0x16CB DUP6 DUP5 PUSH2 0x12FE JUMP JUMPDEST PUSH2 0x16DD DUP6 PUSH1 0x20 ADD MLOAD DUP5 PUSH1 0x20 ADD MLOAD PUSH2 0x1B22 JUMP JUMPDEST ISZERO ISZERO PUSH2 0x1715 JUMPI PUSH1 0x40 MLOAD PUSH32 0x8C379A000000000000000000000000000000000000000000000000000000000 DUP2 MSTORE PUSH1 0x4 ADD PUSH2 0xF4 SWAP1 PUSH2 0x2E0F JUMP JUMPDEST PUSH2 0xFB1 DUP5 CALLER DUP6 PUSH1 0x0 ADD MLOAD PUSH2 0xFBE JUMP JUMPDEST PUSH2 0x172C PUSH2 0x204B JUMP JUMPDEST PUSH1 0x0 DUP1 PUSH1 0x60 PUSH1 0x0 PUSH2 0x173B PUSH2 0x204B JUMP JUMPDEST PUSH2 0x1743 PUSH2 0x204B JUMP JUMPDEST DUP11 MLOAD SWAP5 POP DUP5 PUSH1 0x40 MLOAD SWAP1 DUP1 DUP3 MSTORE DUP1 PUSH1 0x20 MUL PUSH1 0x20 ADD DUP3 ADD PUSH1 0x40 MSTORE DUP1 ISZERO PUSH2 0x1771 JUMPI DUP2 PUSH1 0x20 ADD PUSH1 0x20 DUP3 MUL DUP1 CODESIZE DUP4 CODECOPY ADD SWAP1 POP JUMPDEST POP SWAP4 POP PUSH1 0x0 SWAP3 POP JUMPDEST DUP5 DUP4 LT ISZERO PUSH2 0x18AD JUMPI PUSH2 0x17A6 DUP7 DUP13 DUP6 DUP2 MLOAD DUP2 LT ISZERO ISZERO PUSH2 0x1793 JUMPI INVALID JUMPDEST SWAP1 PUSH1 0x20 ADD SWAP1 PUSH1 0x20 MUL ADD MLOAD PUSH1 0xE0 ADD MLOAD PUSH2 0x1B13 JUMP JUMPDEST PUSH1 0x4 DUP1 SLOAD PUSH1 0x40 DUP1 MLOAD PUSH1 0x20 PUSH1 0x1F PUSH1 0x2 PUSH32 0xFFFFFFFFFFFFFFFFFFFFFFFFFFFFFFFFFFFFFFFFFFFFFFFFFFFFFFFFFFFFFFFF PUSH2 0x100 PUSH1 0x1 DUP9 AND ISZERO MUL ADD SWAP1 SWAP6 AND SWAP5 SWAP1 SWAP5 DIV SWAP4 DUP5 ADD DUP2 SWAP1 DIV DUP2 MUL DUP3 ADD DUP2 ADD SWAP1 SWAP3 MSTORE DUP3 DUP2 MSTORE SWAP4 SWAP10 POP DUP4 ADD DUP3 DUP3 DUP1 ISZERO PUSH2 0x184C JUMPI DUP1 PUSH1 0x1F LT PUSH2 0x1821 JUMPI PUSH2 0x100 DUP1 DUP4 SLOAD DIV MUL DUP4 MSTORE SWAP2 PUSH1 0x20 ADD SWAP2 PUSH2 0x184C JUMP JUMPDEST DUP3 ADD SWAP2 SWAP1 PUSH1 0x0 MSTORE PUSH1 0x20 PUSH1 0x0 KECCAK256 SWAP1 JUMPDEST DUP2 SLOAD DUP2 MSTORE SWAP1 PUSH1 0x1 ADD SWAP1 PUSH1 0x20 ADD DUP1 DUP4 GT PUSH2 0x182F JUMPI DUP3 SWAP1 SUB PUSH1 0x1F AND DUP3 ADD SWAP2 JUMPDEST POP POP POP POP POP DUP12 DUP5 DUP2 MLOAD DUP2 LT ISZERO ISZERO PUSH2 0x185F JUMPI INVALID JUMPDEST PUSH1 0x20 SWAP1 DUP2 MUL SWAP1 SWAP2 ADD ADD MLOAD PUSH2 0x160 ADD MSTORE DUP11 MLOAD DUP12 SWAP1 DUP5 SWAP1 DUP2 LT PUSH2 0x187C JUMPI INVALID JUMPDEST SWAP1 PUSH1 0x20 ADD SWAP1 PUSH1 0x20 MUL ADD MLOAD PUSH1 0xA0 ADD MLOAD DUP5 DUP5 DUP2 MLOAD DUP2 LT ISZERO ISZERO PUSH2 0x1898 JUMPI INVALID JUMPDEST PUSH1 0x20 SWAP1 DUP2 MUL SWAP1 SWAP2 ADD ADD MSTORE PUSH1 0x1 SWAP1 SWAP3 ADD SWAP2 PUSH2 0x1779 JUMP JUMPDEST PUSH1 0x0 DUP7 GT ISZERO PUSH2 0x18D8 JUMPI PUSH2 0x18C1 DUP10 DUP10 DUP9 PUSH2 0x1B3F JUMP JUMPDEST PUSH1 0x60 DUP1 DUP3 ADD MLOAD SWAP1 DUP10 ADD MSTORE PUSH1 0x20 DUP1 DUP3 ADD MLOAD SWAP1 DUP10 ADD MSTORE SWAP2 POP JUMPDEST PUSH1 0x0 SLOAD PUSH1 0x40 MLOAD PUSH32 0x4D0AE54600000000000000000000000000000000000000000000000000000000 DUP2 MSTORE PUSH20 0xFFFFFFFFFFFFFFFFFFFFFFFFFFFFFFFFFFFFFFFF SWAP1 SWAP2 AND SWAP1 PUSH4 0x4D0AE546 SWAP1 PUSH2 0x1932 SWAP1 DUP15 SWAP1 DUP9 SWAP1 DUP16 SWAP1 PUSH1 0x4 ADD PUSH2 0x2D26 JUMP JUMPDEST PUSH1 0x80 PUSH1 0x40 MLOAD DUP1 DUP4 SUB DUP2 PUSH1 0x0 DUP8 DUP1 EXTCODESIZE ISZERO DUP1 ISZERO PUSH2 0x194C JUMPI PUSH1 0x0 DUP1 REVERT JUMPDEST POP GAS CALL ISZERO DUP1 ISZERO PUSH2 0x1960 JUMPI RETURNDATASIZE PUSH1 0x0 DUP1 RETURNDATACOPY RETURNDATASIZE PUSH1 0x0 REVERT JUMPDEST POP POP POP POP PUSH1 0x40 MLOAD RETURNDATASIZE PUSH1 0x1F NOT PUSH1 0x1F DUP3 ADD AND DUP3 ADD DUP1 PUSH1 0x40 MSTORE POP PUSH2 0x1984 SWAP2 SWAP1 DUP2 ADD SWAP1 PUSH2 0x26F8 JUMP JUMPDEST SWAP1 POP PUSH2 0x1990 DUP8 DUP3 PUSH2 0x12FE JUMP JUMPDEST PUSH2 0x19A2 DUP8 PUSH1 0x20 ADD MLOAD DUP3 PUSH1 0x20 ADD MLOAD PUSH2 0x1B22 JUMP JUMPDEST ISZERO ISZERO PUSH2 0x19DA JUMPI PUSH1 0x40 MLOAD PUSH32 0x8C379A000000000000000000000000000000000000000000000000000000000 DUP2 MSTORE PUSH1 0x4 ADD PUSH2 0xF4 SWAP1 PUSH2 0x2E0F JUMP JUMPDEST PUSH1 0x0 SWAP3 POP JUMPDEST DUP5 DUP4 LT ISZERO PUSH2 0x1A18 JUMPI PUSH2 0x1A0D DUP12 DUP5 DUP2 MLOAD DUP2 LT ISZERO ISZERO PUSH2 0x19F8 JUMPI INVALID JUMPDEST SWAP1 PUSH1 0x20 ADD SWAP1 PUSH1 0x20 MUL ADD MLOAD PUSH2 0x140 ADD MLOAD CALLER PUSH2 0x1EC9 JUMP JUMPDEST PUSH1 0x1 SWAP1 SWAP3 ADD SWAP2 PUSH2 0x19DF JUMP JUMPDEST POP POP POP POP POP POP SWAP5 SWAP4 POP POP POP POP JUMP JUMPDEST PUSH1 0x0 DUP1 PUSH1 0x0 DUP7 GT ISZERO PUSH2 0x1B0B JUMPI PUSH1 0x1 SLOAD PUSH1 0x40 MLOAD PUSH32 0x2E1A7D4D00000000000000000000000000000000000000000000000000000000 DUP2 MSTORE PUSH20 0xFFFFFFFFFFFFFFFFFFFFFFFFFFFFFFFFFFFFFFFF SWAP1 SWAP2 AND SWAP1 PUSH4 0x2E1A7D4D SWAP1 PUSH2 0x1A88 SWAP1 DUP10 SWAP1 PUSH1 0x4 ADD PUSH2 0x2EAE JUMP JUMPDEST PUSH1 0x0 PUSH1 0x40 MLOAD DUP1 DUP4 SUB DUP2 PUSH1 0x0 DUP8 DUP1 EXTCODESIZE ISZERO DUP1 ISZERO PUSH2 0x1AA2 JUMPI PUSH1 0x0 DUP1 REVERT JUMPDEST POP GAS CALL ISZERO DUP1 ISZERO PUSH2 0x1AB6 JUMPI RETURNDATASIZE PUSH1 0x0 DUP1 RETURNDATACOPY RETURNDATASIZE PUSH1 0x0 REVERT JUMPDEST POP POP POP POP PUSH2 0x1AC5 DUP6 DUP6 DUP6 PUSH2 0xBD6 JUMP JUMPDEST SWAP2 POP PUSH2 0x1AD1 DUP7 DUP4 PUSH2 0xCA4 JUMP JUMPDEST SWAP1 POP PUSH1 0x0 DUP2 GT ISZERO PUSH2 0x1B0B JUMPI PUSH1 0x40 MLOAD CALLER SWAP1 DUP3 ISZERO PUSH2 0x8FC MUL SWAP1 DUP4 SWAP1 PUSH1 0x0 DUP2 DUP2 DUP2 DUP6 DUP9 DUP9 CALL SWAP4 POP POP POP POP ISZERO DUP1 ISZERO PUSH2 0x1B09 JUMPI RETURNDATASIZE PUSH1 0x0 DUP1 RETURNDATACOPY RETURNDATASIZE PUSH1 0x0 REVERT JUMPDEST POP JUMPDEST POP POP POP POP POP POP JUMP JUMPDEST PUSH1 0x0 DUP3 DUP3 ADD DUP4 DUP2 LT ISZERO PUSH2 0xBCF JUMPI INVALID JUMPDEST PUSH1 0x0 DUP1 PUSH2 0x1B34 PUSH2 0x251C PUSH2 0x2710 DUP7 PUSH2 0x1198 JUMP JUMPDEST SWAP1 SWAP3 LT ISZERO SWAP4 SWAP3 POP POP POP JUMP JUMPDEST PUSH2 0x1B47 PUSH2 0x204B JUMP JUMPDEST PUSH1 0x0 DUP1 PUSH1 0x0 PUSH2 0x1B54 PUSH2 0x204B JUMP JUMPDEST PUSH1 0x0 SWAP4 POP JUMPDEST DUP8 MLOAD DUP5 LT ISZERO PUSH2 0x1E6D JUMPI PUSH1 0x3 DUP1 SLOAD PUSH1 0x40 DUP1 MLOAD PUSH1 0x20 PUSH1 0x2 PUSH1 0x1 DUP6 AND ISZERO PUSH2 0x100 MUL PUSH32 0xFFFFFFFFFFFFFFFFFFFFFFFFFFFFFFFFFFFFFFFFFFFFFFFFFFFFFFFFFFFFFFFF ADD SWAP1 SWAP5 AND SWAP4 SWAP1 SWAP4 DIV PUSH1 0x1F DUP2 ADD DUP5 SWAP1 DIV DUP5 MUL DUP3 ADD DUP5 ADD SWAP1 SWAP3 MSTORE DUP2 DUP2 MSTORE SWAP3 SWAP2 DUP4 ADD DUP3 DUP3 DUP1 ISZERO PUSH2 0x1C06 JUMPI DUP1 PUSH1 0x1F LT PUSH2 0x1BDB JUMPI PUSH2 0x100 DUP1 DUP4 SLOAD DIV MUL DUP4 MSTORE SWAP2 PUSH1 0x20 ADD SWAP2 PUSH2 0x1C06 JUMP JUMPDEST DUP3 ADD SWAP2 SWAP1 PUSH1 0x0 MSTORE PUSH1 0x20 PUSH1 0x0 KECCAK256 SWAP1 JUMPDEST DUP2 SLOAD DUP2 MSTORE SWAP1 PUSH1 0x1 ADD SWAP1 PUSH1 0x20 ADD DUP1 DUP4 GT PUSH2 0x1BE9 JUMPI DUP3 SWAP1 SUB PUSH1 0x1F AND DUP3 ADD SWAP2 JUMPDEST POP POP POP POP POP DUP9 DUP6 DUP2 MLOAD DUP2 LT ISZERO ISZERO PUSH2 0x1C19 JUMPI INVALID JUMPDEST PUSH1 0x20 SWAP1 DUP2 MUL SWAP1 SWAP2 ADD DUP2 ADD MLOAD PUSH2 0x140 ADD SWAP2 SWAP1 SWAP2 MSTORE PUSH1 0x4 DUP1 SLOAD PUSH1 0x40 DUP1 MLOAD PUSH1 0x1F PUSH1 0x2 PUSH32 0xFFFFFFFFFFFFFFFFFFFFFFFFFFFFFFFFFFFFFFFFFFFFFFFFFFFFFFFFFFFFFFFF PUSH2 0x100 PUSH1 0x1 DUP8 AND ISZERO MUL ADD SWAP1 SWAP5 AND SWAP4 SWAP1 SWAP4 DIV SWAP3 DUP4 ADD DUP6 SWAP1 DIV DUP6 MUL DUP2 ADD DUP6 ADD SWAP1 SWAP2 MSTORE DUP2 DUP2 MSTORE SWAP3 DUP4 ADD DUP3 DUP3 DUP1 ISZERO PUSH2 0x1CCE JUMPI DUP1 PUSH1 0x1F LT PUSH2 0x1CA3 JUMPI PUSH2 0x100 DUP1 DUP4 SLOAD DIV MUL DUP4 MSTORE SWAP2 PUSH1 0x20 ADD SWAP2 PUSH2 0x1CCE JUMP JUMPDEST DUP3 ADD SWAP2 SWAP1 PUSH1 0x0 MSTORE PUSH1 0x20 PUSH1 0x0 KECCAK256 SWAP1 JUMPDEST DUP2 SLOAD DUP2 MSTORE SWAP1 PUSH1 0x1 ADD SWAP1 PUSH1 0x20 ADD DUP1 DUP4 GT PUSH2 0x1CB1 JUMPI DUP3 SWAP1 SUB PUSH1 0x1F AND DUP3 ADD SWAP2 JUMPDEST POP POP POP POP POP DUP9 DUP6 DUP2 MLOAD DUP2 LT ISZERO ISZERO PUSH2 0x1CE1 JUMPI INVALID JUMPDEST PUSH1 0x20 SWAP1 DUP2 MUL SWAP1 SWAP2 ADD ADD MLOAD PUSH2 0x160 ADD MSTORE DUP5 MLOAD PUSH2 0x1CFD SWAP1 DUP8 SWAP1 PUSH2 0xCA4 JUMP JUMPDEST SWAP3 POP PUSH2 0x1D4B DUP9 DUP6 DUP2 MLOAD DUP2 LT ISZERO ISZERO PUSH2 0x1D10 JUMPI INVALID JUMPDEST SWAP1 PUSH1 0x20 ADD SWAP1 PUSH1 0x20 MUL ADD MLOAD PUSH1 0xA0 ADD MLOAD PUSH2 0xB0B DUP11 DUP8 DUP2 MLOAD DUP2 LT ISZERO ISZERO PUSH2 0x1D2F JUMPI INVALID JUMPDEST SWAP1 PUSH1 0x20 ADD SWAP1 PUSH1 0x20 MUL ADD MLOAD PUSH1 0x80 ADD MLOAD DUP12 DUP9 DUP2 MLOAD DUP2 LT ISZERO ISZERO PUSH2 0xAF8 JUMPI INVALID JUMPDEST PUSH1 0x0 SLOAD DUP10 MLOAD SWAP2 SWAP4 POP PUSH20 0xFFFFFFFFFFFFFFFFFFFFFFFFFFFFFFFFFFFFFFFF AND SWAP1 PUSH4 0xB4BE83D5 SWAP1 DUP11 SWAP1 DUP8 SWAP1 DUP2 LT PUSH2 0x1D7C JUMPI INVALID JUMPDEST SWAP1 PUSH1 0x20 ADD SWAP1 PUSH1 0x20 MUL ADD MLOAD PUSH2 0x1D91 DUP6 PUSH1 0x1 PUSH2 0x1B13 JUMP JUMPDEST DUP11 DUP9 DUP2 MLOAD DUP2 LT ISZERO ISZERO PUSH2 0x1D9F JUMPI INVALID JUMPDEST SWAP1 PUSH1 0x20 ADD SWAP1 PUSH1 0x20 MUL ADD MLOAD PUSH1 0x40 MLOAD DUP5 PUSH4 0xFFFFFFFF AND PUSH29 0x100000000000000000000000000000000000000000000000000000000 MUL DUP2 MSTORE PUSH1 0x4 ADD PUSH2 0x1DE3 SWAP4 SWAP3 SWAP2 SWAP1 PUSH2 0x2E6E JUMP JUMPDEST PUSH1 0x80 PUSH1 0x40 MLOAD DUP1 DUP4 SUB DUP2 PUSH1 0x0 DUP8 DUP1 EXTCODESIZE ISZERO DUP1 ISZERO PUSH2 0x1DFD JUMPI PUSH1 0x0 DUP1 REVERT JUMPDEST POP GAS CALL ISZERO DUP1 ISZERO PUSH2 0x1E11 JUMPI RETURNDATASIZE PUSH1 0x0 DUP1 RETURNDATACOPY RETURNDATASIZE PUSH1 0x0 REVERT JUMPDEST POP POP POP POP PUSH1 0x40 MLOAD RETURNDATASIZE PUSH1 0x1F NOT PUSH1 0x1F DUP3 ADD AND DUP3 ADD DUP1 PUSH1 0x40 MSTORE POP PUSH2 0x1E35 SWAP2 SWAP1 DUP2 ADD SWAP1 PUSH2 0x26F8 JUMP JUMPDEST SWAP1 POP PUSH2 0x1E49 DUP2 PUSH1 0x0 ADD MLOAD DUP3 PUSH1 0x60 ADD MLOAD PUSH2 0xCA4 JUMP JUMPDEST DUP2 MSTORE PUSH2 0x1E55 DUP6 DUP3 PUSH2 0x12FE JUMP JUMPDEST DUP5 MLOAD DUP7 GT PUSH2 0x1E62 JUMPI PUSH2 0x1E6D JUMP JUMPDEST PUSH1 0x1 SWAP1 SWAP4 ADD SWAP3 PUSH2 0x1B59 JUMP JUMPDEST POP POP POP POP SWAP4 SWAP3 POP POP POP JUMP JUMPDEST PUSH1 0x0 DUP3 DUP3 MUL DUP4 ISZERO DUP1 PUSH2 0x1E94 JUMPI POP DUP3 DUP5 DUP3 DUP2 ISZERO ISZERO PUSH2 0x1E91 JUMPI INVALID JUMPDEST DIV EQ JUMPDEST ISZERO ISZERO PUSH2 0xBCF JUMPI INVALID JUMPDEST PUSH1 0x0 DUP1 DUP3 DUP5 DUP2 ISZERO ISZERO PUSH2 0x1EAA JUMPI INVALID JUMPDEST DIV SWAP5 SWAP4 POP POP POP POP JUMP JUMPDEST PUSH1 0x0 DUP2 DUP4 LT PUSH2 0x1EC2 JUMPI DUP2 PUSH2 0xBCF JUMP JUMPDEST POP SWAP1 SWAP2 SWAP1 POP JUMP JUMPDEST PUSH1 0x0 DUP1 PUSH1 0x60 PUSH2 0x1EDF DUP6 PUSH1 0x10 PUSH4 0xFFFFFFFF PUSH2 0xCBB AND JUMP JUMPDEST SWAP3 POP PUSH2 0x1EF2 DUP6 PUSH1 0x24 PUSH4 0xFFFFFFFF PUSH2 0x1F99 AND JUMP JUMPDEST SWAP2 POP PUSH2 0x1F05 DUP6 PUSH1 0x64 PUSH4 0xFFFFFFFF PUSH2 0x1FA5 AND JUMP JUMPDEST PUSH1 0x40 MLOAD PUSH32 0xB88D4FDE00000000000000000000000000000000000000000000000000000000 DUP2 MSTORE SWAP1 SWAP2 POP PUSH20 0xFFFFFFFFFFFFFFFFFFFFFFFFFFFFFFFFFFFFFFFF DUP5 AND SWAP1 PUSH4 0xB88D4FDE SWAP1 PUSH2 0x1F60 SWAP1 ADDRESS SWAP1 DUP9 SWAP1 DUP8 SWAP1 DUP8 SWAP1 PUSH1 0x4 ADD PUSH2 0x2CC7 JUMP JUMPDEST PUSH1 0x0 PUSH1 0x40 MLOAD DUP1 DUP4 SUB DUP2 PUSH1 0x0 DUP8 DUP1 EXTCODESIZE ISZERO DUP1 ISZERO PUSH2 0x1F7A JUMPI PUSH1 0x0 DUP1 REVERT JUMPDEST POP GAS CALL ISZERO DUP1 ISZERO PUSH2 0x1F8E JUMPI RETURNDATASIZE PUSH1 0x0 DUP1 RETURNDATACOPY RETURNDATASIZE PUSH1 0x0 REVERT JUMPDEST POP POP POP POP POP POP POP POP POP JUMP JUMPDEST PUSH1 0x0 PUSH2 0xBCF DUP4 DUP4 PUSH2 0x2000 JUMP JUMPDEST PUSH1 0x60 PUSH1 0x0 PUSH2 0x1FB3 DUP5 DUP5 PUSH2 0x1F99 JUMP JUMPDEST SWAP1 POP PUSH1 0x20 DUP4 ADD SWAP3 POP DUP1 DUP4 ADD DUP5 MLOAD LT ISZERO ISZERO ISZERO PUSH2 0x1FFA JUMPI PUSH1 0x40 MLOAD PUSH32 0x8C379A000000000000000000000000000000000000000000000000000000000 DUP2 MSTORE PUSH1 0x4 ADD PUSH2 0xF4 SWAP1 PUSH2 0x2DBF JUMP JUMPDEST POP POP ADD SWAP1 JUMP JUMPDEST PUSH1 0x0 DUP2 PUSH1 0x20 ADD DUP4 MLOAD LT ISZERO ISZERO ISZERO PUSH2 0x2042 JUMPI PUSH1 0x40 MLOAD PUSH32 0x8C379A000000000000000000000000000000000000000000000000000000000 DUP2 MSTORE PUSH1 0x4 ADD PUSH2 0xF4 SWAP1 PUSH2 0x2DDF JUMP JUMPDEST POP ADD PUSH1 0x20 ADD MLOAD SWAP1 JUMP JUMPDEST PUSH1 0x80 PUSH1 0x40 MLOAD SWAP1 DUP2 ADD PUSH1 0x40 MSTORE DUP1 PUSH1 0x0 DUP2 MSTORE PUSH1 0x20 ADD PUSH1 0x0 DUP2 MSTORE PUSH1 0x20 ADD PUSH1 0x0 DUP2 MSTORE PUSH1 0x20 ADD PUSH1 0x0 DUP2 MSTORE POP SWAP1 JUMP JUMPDEST PUSH1 0x40 DUP1 MLOAD PUSH1 0x60 DUP2 ADD DUP3 MSTORE PUSH1 0x0 DUP1 DUP3 MSTORE PUSH1 0x20 DUP3 ADD DUP2 SWAP1 MSTORE SWAP2 DUP2 ADD SWAP2 SWAP1 SWAP2 MSTORE SWAP1 JUMP JUMPDEST PUSH1 0x0 PUSH2 0xBCF DUP3 CALLDATALOAD PUSH2 0x2F54 JUMP JUMPDEST PUSH1 0x0 PUSH1 0x1F DUP3 ADD DUP4 SGT PUSH2 0x20B1 JUMPI PUSH1 0x0 DUP1 REVERT JUMPDEST DUP2 CALLDATALOAD PUSH2 0x20C4 PUSH2 0x20BF DUP3 PUSH2 0x2EE3 JUMP JUMPDEST PUSH2 0x2EBC JUMP JUMPDEST DUP2 DUP2 MSTORE PUSH1 0x20 SWAP4 DUP5 ADD SWAP4 SWAP1 SWAP3 POP DUP3 ADD DUP4 PUSH1 0x0 JUMPDEST DUP4 DUP2 LT ISZERO PUSH2 0x61C JUMPI DUP2 CALLDATALOAD DUP7 ADD PUSH2 0x20EC DUP9 DUP3 PUSH2 0x216B JUMP JUMPDEST DUP5 MSTORE POP PUSH1 0x20 SWAP3 DUP4 ADD SWAP3 SWAP2 SWAP1 SWAP2 ADD SWAP1 PUSH1 0x1 ADD PUSH2 0x20D6 JUMP JUMPDEST PUSH1 0x0 PUSH1 0x1F DUP3 ADD DUP4 SGT PUSH2 0x2113 JUMPI PUSH1 0x0 DUP1 REVERT JUMPDEST DUP2 CALLDATALOAD PUSH2 0x2121 PUSH2 0x20BF DUP3 PUSH2 0x2EE3 JUMP JUMPDEST DUP2 DUP2 MSTORE PUSH1 0x20 SWAP4 DUP5 ADD SWAP4 SWAP1 SWAP3 POP DUP3 ADD DUP4 PUSH1 0x0 JUMPDEST DUP4 DUP2 LT ISZERO PUSH2 0x61C JUMPI DUP2 CALLDATALOAD DUP7 ADD PUSH2 0x2149 DUP9 DUP3 PUSH2 0x227B JUMP JUMPDEST DUP5 MSTORE POP PUSH1 0x20 SWAP3 DUP4 ADD SWAP3 SWAP2 SWAP1 SWAP2 ADD SWAP1 PUSH1 0x1 ADD PUSH2 0x2133 JUMP JUMPDEST PUSH1 0x0 PUSH2 0xBCF DUP3 MLOAD PUSH2 0x2F99 JUMP JUMPDEST PUSH1 0x0 PUSH1 0x1F DUP3 ADD DUP4 SGT PUSH2 0x217C JUMPI PUSH1 0x0 DUP1 REVERT JUMPDEST DUP2 CALLDATALOAD PUSH2 0x218A PUSH2 0x20BF DUP3 PUSH2 0x2F04 JUMP JUMPDEST SWAP2 POP DUP1 DUP3 MSTORE PUSH1 0x20 DUP4 ADD PUSH1 0x20 DUP4 ADD DUP6 DUP4 DUP4 ADD GT ISZERO PUSH2 0x21A6 JUMPI PUSH1 0x0 DUP1 REVERT JUMPDEST PUSH2 0xA70 DUP4 DUP3 DUP5 PUSH2 0x2FA2 JUMP JUMPDEST PUSH1 0x0 PUSH1 0x80 DUP3 DUP5 SUB SLT ISZERO PUSH2 0x21C3 JUMPI PUSH1 0x0 DUP1 REVERT JUMPDEST PUSH2 0x21CD PUSH1 0x80 PUSH2 0x2EBC JUMP JUMPDEST SWAP1 POP PUSH1 0x0 PUSH2 0x21DB DUP5 DUP5 PUSH2 0x215F JUMP JUMPDEST DUP3 MSTORE POP PUSH1 0x20 PUSH2 0x21EC DUP5 DUP5 DUP4 ADD PUSH2 0x215F JUMP JUMPDEST PUSH1 0x20 DUP4 ADD MSTORE POP PUSH1 0x40 PUSH2 0x2200 DUP5 DUP3 DUP6 ADD PUSH2 0x215F JUMP JUMPDEST PUSH1 0x40 DUP4 ADD MSTORE POP PUSH1 0x60 PUSH2 0x2214 DUP5 DUP3 DUP6 ADD PUSH2 0x215F JUMP JUMPDEST PUSH1 0x60 DUP4 ADD MSTORE POP SWAP3 SWAP2 POP POP JUMP JUMPDEST PUSH1 0x0 PUSH1 0x60 DUP3 DUP5 SUB SLT ISZERO PUSH2 0x2232 JUMPI PUSH1 0x0 DUP1 REVERT JUMPDEST PUSH2 0x223C PUSH1 0x60 PUSH2 0x2EBC JUMP JUMPDEST SWAP1 POP PUSH1 0x0 PUSH2 0x224A DUP5 DUP5 PUSH2 0x23DC JUMP JUMPDEST DUP3 MSTORE POP PUSH1 0x20 PUSH2 0x225B DUP5 DUP5 DUP4 ADD PUSH2 0x215F JUMP JUMPDEST PUSH1 0x20 DUP4 ADD MSTORE POP PUSH1 0x40 PUSH2 0x226F DUP5 DUP3 DUP6 ADD PUSH2 0x215F JUMP JUMPDEST PUSH1 0x40 DUP4 ADD MSTORE POP SWAP3 SWAP2 POP POP JUMP JUMPDEST PUSH1 0x0 PUSH2 0x180 DUP3 DUP5 SUB SLT ISZERO PUSH2 0x228E JUMPI PUSH1 0x0 DUP1 REVERT JUMPDEST PUSH2 0x2299 PUSH2 0x180 PUSH2 0x2EBC JUMP JUMPDEST SWAP1 POP PUSH1 0x0 PUSH2 0x22A7 DUP5 DUP5 PUSH2 0x2094 JUMP JUMPDEST DUP3 MSTORE POP PUSH1 0x20 PUSH2 0x22B8 DUP5 DUP5 DUP4 ADD PUSH2 0x2094 JUMP JUMPDEST PUSH1 0x20 DUP4 ADD MSTORE POP PUSH1 0x40 PUSH2 0x22CC DUP5 DUP3 DUP6 ADD PUSH2 0x2094 JUMP JUMPDEST PUSH1 0x40 DUP4 ADD MSTORE POP PUSH1 0x60 PUSH2 0x22E0 DUP5 DUP3 DUP6 ADD PUSH2 0x2094 JUMP JUMPDEST PUSH1 0x60 DUP4 ADD MSTORE POP PUSH1 0x80 PUSH2 0x22F4 DUP5 DUP3 DUP6 ADD PUSH2 0x23D0 JUMP JUMPDEST PUSH1 0x80 DUP4 ADD MSTORE POP PUSH1 0xA0 PUSH2 0x2308 DUP5 DUP3 DUP6 ADD PUSH2 0x23D0 JUMP JUMPDEST PUSH1 0xA0 DUP4 ADD MSTORE POP PUSH1 0xC0 PUSH2 0x231C DUP5 DUP3 DUP6 ADD PUSH2 0x23D0 JUMP JUMPDEST PUSH1 0xC0 DUP4 ADD MSTORE POP PUSH1 0xE0 PUSH2 0x2330 DUP5 DUP3 DUP6 ADD PUSH2 0x23D0 JUMP JUMPDEST PUSH1 0xE0 DUP4 ADD MSTORE POP PUSH2 0x100 PUSH2 0x2345 DUP5 DUP3 DUP6 ADD PUSH2 0x23D0 JUMP JUMPDEST PUSH2 0x100 DUP4 ADD MSTORE POP PUSH2 0x120 PUSH2 0x235B DUP5 DUP3 DUP6 ADD PUSH2 0x23D0 JUMP JUMPDEST PUSH2 0x120 DUP4 ADD MSTORE POP PUSH2 0x140 DUP3 ADD CALLDATALOAD PUSH8 0xFFFFFFFFFFFFFFFF DUP2 GT ISZERO PUSH2 0x237D JUMPI PUSH1 0x0 DUP1 REVERT JUMPDEST PUSH2 0x2389 DUP5 DUP3 DUP6 ADD PUSH2 0x216B JUMP JUMPDEST PUSH2 0x140 DUP4 ADD MSTORE POP PUSH2 0x160 DUP3 ADD CALLDATALOAD PUSH8 0xFFFFFFFFFFFFFFFF DUP2 GT ISZERO PUSH2 0x23AB JUMPI PUSH1 0x0 DUP1 REVERT JUMPDEST PUSH2 0x23B7 DUP5 DUP3 DUP6 ADD PUSH2 0x216B JUMP JUMPDEST PUSH2 0x160 DUP4 ADD MSTORE POP SWAP3 SWAP2 POP POP JUMP JUMPDEST PUSH1 0x0 PUSH2 0xBCF DUP3 CALLDATALOAD PUSH2 0x2F92 JUMP JUMPDEST PUSH1 0x0 PUSH2 0xBCF DUP3 CALLDATALOAD PUSH2 0x2F99 JUMP JUMPDEST PUSH1 0x0 PUSH2 0xBCF DUP3 MLOAD PUSH2 0x2F9C JUMP JUMPDEST PUSH1 0x0 DUP1 PUSH1 0x0 DUP1 PUSH1 0x80 DUP6 DUP8 SUB SLT ISZERO PUSH2 0x23FE JUMPI PUSH1 0x0 DUP1 REVERT JUMPDEST PUSH1 0x0 PUSH2 0x240A DUP8 DUP8 PUSH2 0x2094 JUMP JUMPDEST SWAP5 POP POP PUSH1 0x20 PUSH2 0x241B DUP8 DUP3 DUP9 ADD PUSH2 0x2094 JUMP JUMPDEST SWAP4 POP POP PUSH1 0x40 PUSH2 0x242C DUP8 DUP3 DUP9 ADD PUSH2 0x23D0 JUMP JUMPDEST SWAP3 POP POP PUSH1 0x60 DUP6 ADD CALLDATALOAD PUSH8 0xFFFFFFFFFFFFFFFF DUP2 GT ISZERO PUSH2 0x2449 JUMPI PUSH1 0x0 DUP1 REVERT JUMPDEST PUSH2 0x2455 DUP8 DUP3 DUP9 ADD PUSH2 0x216B JUMP JUMPDEST SWAP2 POP POP SWAP3 SWAP6 SWAP2 SWAP5 POP SWAP3 POP JUMP JUMPDEST PUSH1 0x0 DUP1 PUSH1 0x0 PUSH1 0x60 DUP5 DUP7 SUB SLT ISZERO PUSH2 0x2476 JUMPI PUSH1 0x0 DUP1 REVERT JUMPDEST PUSH1 0x0 PUSH2 0x2482 DUP7 DUP7 PUSH2 0x2094 JUMP JUMPDEST SWAP4 POP POP PUSH1 0x20 PUSH2 0x2493 DUP7 DUP3 DUP8 ADD PUSH2 0x23D0 JUMP JUMPDEST SWAP3 POP POP PUSH1 0x40 DUP5 ADD CALLDATALOAD PUSH8 0xFFFFFFFFFFFFFFFF DUP2 GT ISZERO PUSH2 0x24B0 JUMPI PUSH1 0x0 DUP1 REVERT JUMPDEST PUSH2 0x24BC DUP7 DUP3 DUP8 ADD PUSH2 0x216B JUMP JUMPDEST SWAP2 POP POP SWAP3 POP SWAP3 POP SWAP3 JUMP JUMPDEST PUSH1 0x0 DUP1 PUSH1 0x0 DUP1 PUSH1 0x0 DUP1 PUSH1 0xC0 DUP8 DUP10 SUB SLT ISZERO PUSH2 0x24DF JUMPI PUSH1 0x0 DUP1 REVERT JUMPDEST DUP7 CALLDATALOAD PUSH8 0xFFFFFFFFFFFFFFFF DUP2 GT ISZERO PUSH2 0x24F6 JUMPI PUSH1 0x0 DUP1 REVERT JUMPDEST PUSH2 0x2502 DUP10 DUP3 DUP11 ADD PUSH2 0x2102 JUMP JUMPDEST SWAP7 POP POP PUSH1 0x20 DUP8 ADD CALLDATALOAD PUSH8 0xFFFFFFFFFFFFFFFF DUP2 GT ISZERO PUSH2 0x251F JUMPI PUSH1 0x0 DUP1 REVERT JUMPDEST PUSH2 0x252B DUP10 DUP3 DUP11 ADD PUSH2 0x20A0 JUMP JUMPDEST SWAP6 POP POP PUSH1 0x40 DUP8 ADD CALLDATALOAD PUSH8 0xFFFFFFFFFFFFFFFF DUP2 GT ISZERO PUSH2 0x2548 JUMPI PUSH1 0x0 DUP1 REVERT JUMPDEST PUSH2 0x2554 DUP10 DUP3 DUP11 ADD PUSH2 0x2102 JUMP JUMPDEST SWAP5 POP POP PUSH1 0x60 DUP8 ADD CALLDATALOAD PUSH8 0xFFFFFFFFFFFFFFFF DUP2 GT ISZERO PUSH2 0x2571 JUMPI PUSH1 0x0 DUP1 REVERT JUMPDEST PUSH2 0x257D DUP10 DUP3 DUP11 ADD PUSH2 0x20A0 JUMP JUMPDEST SWAP4 POP POP PUSH1 0x80 PUSH2 0x258E DUP10 DUP3 DUP11 ADD PUSH2 0x23C4 JUMP JUMPDEST SWAP3 POP POP PUSH1 0xA0 PUSH2 0x259F DUP10 DUP3 DUP11 ADD PUSH2 0x2094 JUMP JUMPDEST SWAP2 POP POP SWAP3 SWAP6 POP SWAP3 SWAP6 POP SWAP3 SWAP6 JUMP JUMPDEST PUSH1 0x0 DUP1 PUSH1 0x0 DUP1 PUSH1 0x0 DUP1 PUSH1 0x0 PUSH1 0xE0 DUP9 DUP11 SUB SLT ISZERO PUSH2 0x25C7 JUMPI PUSH1 0x0 DUP1 REVERT JUMPDEST DUP8 CALLDATALOAD PUSH8 0xFFFFFFFFFFFFFFFF DUP2 GT ISZERO PUSH2 0x25DE JUMPI PUSH1 0x0 DUP1 REVERT JUMPDEST PUSH2 0x25EA DUP11 DUP3 DUP12 ADD PUSH2 0x2102 JUMP JUMPDEST SWAP8 POP POP PUSH1 0x20 DUP9 ADD CALLDATALOAD PUSH8 0xFFFFFFFFFFFFFFFF DUP2 GT ISZERO PUSH2 0x2607 JUMPI PUSH1 0x0 DUP1 REVERT JUMPDEST PUSH2 0x2613 DUP11 DUP3 DUP12 ADD PUSH2 0x20A0 JUMP JUMPDEST SWAP7 POP POP PUSH1 0x40 DUP9 ADD CALLDATALOAD PUSH8 0xFFFFFFFFFFFFFFFF DUP2 GT ISZERO PUSH2 0x2630 JUMPI PUSH1 0x0 DUP1 REVERT JUMPDEST PUSH2 0x263C DUP11 DUP3 DUP12 ADD PUSH2 0x2102 JUMP JUMPDEST SWAP6 POP POP PUSH1 0x60 DUP9 ADD CALLDATALOAD PUSH8 0xFFFFFFFFFFFFFFFF DUP2 GT ISZERO PUSH2 0x2659 JUMPI PUSH1 0x0 DUP1 REVERT JUMPDEST PUSH2 0x2665 DUP11 DUP3 DUP12 ADD PUSH2 0x20A0 JUMP JUMPDEST SWAP5 POP POP PUSH1 0x80 PUSH2 0x2676 DUP11 DUP3 DUP12 ADD PUSH2 0x23D0 JUMP JUMPDEST SWAP4 POP POP PUSH1 0xA0 PUSH2 0x2687 DUP11 DUP3 DUP12 ADD PUSH2 0x23C4 JUMP JUMPDEST SWAP3 POP POP PUSH1 0xC0 PUSH2 0x2698 DUP11 DUP3 DUP12 ADD PUSH2 0x2094 JUMP JUMPDEST SWAP2 POP POP SWAP3 SWAP6 SWAP9 SWAP2 SWAP5 SWAP8 POP SWAP3 SWAP6 POP JUMP JUMPDEST PUSH1 0x0 DUP1 PUSH1 0x40 DUP4 DUP6 SUB SLT ISZERO PUSH2 0x26BA JUMPI PUSH1 0x0 DUP1 REVERT JUMPDEST DUP3 CALLDATALOAD PUSH8 0xFFFFFFFFFFFFFFFF DUP2 GT ISZERO PUSH2 0x26D1 JUMPI PUSH1 0x0 DUP1 REVERT JUMPDEST PUSH2 0x26DD DUP6 DUP3 DUP7 ADD PUSH2 0x2102 JUMP JUMPDEST SWAP3 POP POP PUSH1 0x20 PUSH2 0x26EE DUP6 DUP3 DUP7 ADD PUSH2 0x23D0 JUMP JUMPDEST SWAP2 POP POP SWAP3 POP SWAP3 SWAP1 POP JUMP JUMPDEST PUSH1 0x0 PUSH1 0x80 DUP3 DUP5 SUB SLT ISZERO PUSH2 0x270A JUMPI PUSH1 0x0 DUP1 REVERT JUMPDEST PUSH1 0x0 PUSH2 0x11AD DUP5 DUP5 PUSH2 0x21B1 JUMP JUMPDEST PUSH1 0x0 PUSH1 0x60 DUP3 DUP5 SUB SLT ISZERO PUSH2 0x2728 JUMPI PUSH1 0x0 DUP1 REVERT JUMPDEST PUSH1 0x0 PUSH2 0x11AD DUP5 DUP5 PUSH2 0x2220 JUMP JUMPDEST PUSH2 0x273D DUP2 PUSH2 0x2F54 JUMP JUMPDEST DUP3 MSTORE POP POP JUMP JUMPDEST PUSH1 0x0 PUSH2 0x274E DUP3 PUSH2 0x2F50 JUMP JUMPDEST DUP1 DUP5 MSTORE PUSH1 0x20 DUP5 ADD SWAP4 POP DUP4 PUSH1 0x20 DUP3 MUL DUP6 ADD PUSH2 0x2767 DUP6 PUSH2 0x2F4A JUMP JUMPDEST PUSH1 0x0 JUMPDEST DUP5 DUP2 LT ISZERO PUSH2 0x279E JUMPI DUP4 DUP4 SUB DUP9 MSTORE PUSH2 0x2782 DUP4 DUP4 MLOAD PUSH2 0x2865 JUMP JUMPDEST SWAP3 POP PUSH2 0x278D DUP3 PUSH2 0x2F4A JUMP JUMPDEST PUSH1 0x20 SWAP9 SWAP1 SWAP9 ADD SWAP8 SWAP2 POP PUSH1 0x1 ADD PUSH2 0x276A JUMP JUMPDEST POP SWAP1 SWAP7 SWAP6 POP POP POP POP POP POP JUMP JUMPDEST PUSH1 0x0 PUSH2 0x27B5 DUP3 PUSH2 0x2F50 JUMP JUMPDEST DUP1 DUP5 MSTORE PUSH1 0x20 DUP5 ADD SWAP4 POP DUP4 PUSH1 0x20 DUP3 MUL DUP6 ADD PUSH2 0x27CE DUP6 PUSH2 0x2F4A JUMP JUMPDEST PUSH1 0x0 JUMPDEST DUP5 DUP2 LT ISZERO PUSH2 0x279E JUMPI DUP4 DUP4 SUB DUP9 MSTORE PUSH2 0x27E9 DUP4 DUP4 MLOAD PUSH2 0x2BB2 JUMP JUMPDEST SWAP3 POP PUSH2 0x27F4 DUP3 PUSH2 0x2F4A JUMP JUMPDEST PUSH1 0x20 SWAP9 SWAP1 SWAP9 ADD SWAP8 SWAP2 POP PUSH1 0x1 ADD PUSH2 0x27D1 JUMP JUMPDEST PUSH1 0x0 PUSH2 0x2810 DUP3 PUSH2 0x2F50 JUMP JUMPDEST DUP1 DUP5 MSTORE PUSH1 0x20 DUP5 ADD SWAP4 POP PUSH2 0x2822 DUP4 PUSH2 0x2F4A JUMP JUMPDEST PUSH1 0x0 JUMPDEST DUP3 DUP2 LT ISZERO PUSH2 0x2852 JUMPI PUSH2 0x2838 DUP7 DUP4 MLOAD PUSH2 0x2CBE JUMP JUMPDEST PUSH2 0x2841 DUP3 PUSH2 0x2F4A JUMP JUMPDEST PUSH1 0x20 SWAP7 SWAP1 SWAP7 ADD SWAP6 SWAP2 POP PUSH1 0x1 ADD PUSH2 0x2825 JUMP JUMPDEST POP SWAP4 SWAP5 SWAP4 POP POP POP POP JUMP JUMPDEST PUSH2 0x273D DUP2 PUSH2 0x2F6D JUMP JUMPDEST PUSH1 0x0 PUSH2 0x2870 DUP3 PUSH2 0x2F50 JUMP JUMPDEST DUP1 DUP5 MSTORE PUSH2 0x2884 DUP2 PUSH1 0x20 DUP7 ADD PUSH1 0x20 DUP7 ADD PUSH2 0x2FAE JUMP JUMPDEST PUSH2 0x288D DUP2 PUSH2 0x2FDA JUMP JUMPDEST SWAP1 SWAP4 ADD PUSH1 0x20 ADD SWAP4 SWAP3 POP POP POP JUMP JUMPDEST PUSH1 0x23 DUP2 MSTORE PUSH32 0x44454641554C545F46554E4354494F4E5F574554485F434F4E54524143545F4F PUSH1 0x20 DUP3 ADD MSTORE PUSH32 0x4E4C590000000000000000000000000000000000000000000000000000000000 PUSH1 0x40 DUP3 ADD MSTORE PUSH1 0x60 ADD SWAP1 JUMP JUMPDEST PUSH1 0x11 DUP2 MSTORE PUSH32 0x494E56414C49445F4D53475F56414C5545000000000000000000000000000000 PUSH1 0x20 DUP3 ADD MSTORE PUSH1 0x40 ADD SWAP1 JUMP JUMPDEST PUSH1 0x30 DUP2 MSTORE PUSH32 0x475245415445525F4F525F455155414C5F544F5F4E45535445445F4259544553 PUSH1 0x20 DUP3 ADD MSTORE PUSH32 0x5F4C454E4754485F524551554952454400000000000000000000000000000000 PUSH1 0x40 DUP3 ADD MSTORE PUSH1 0x60 ADD SWAP1 JUMP JUMPDEST PUSH1 0x17 DUP2 MSTORE PUSH32 0x56414C55455F475245415445525F5448414E5F5A45524F000000000000000000 PUSH1 0x20 DUP3 ADD MSTORE PUSH1 0x40 ADD SWAP1 JUMP JUMPDEST PUSH1 0x26 DUP2 MSTORE PUSH32 0x475245415445525F4F525F455155414C5F544F5F33325F4C454E4754485F5245 PUSH1 0x20 DUP3 ADD MSTORE PUSH32 0x5155495245440000000000000000000000000000000000000000000000000000 PUSH1 0x40 DUP3 ADD MSTORE PUSH1 0x60 ADD SWAP1 JUMP JUMPDEST PUSH1 0x18 DUP2 MSTORE PUSH32 0x4645455F50524F504F5254494F4E5F544F4F5F4C415247450000000000000000 PUSH1 0x20 DUP3 ADD MSTORE PUSH1 0x40 ADD SWAP1 JUMP JUMPDEST PUSH1 0xF DUP2 MSTORE PUSH32 0x5452414E534645525F4641494C45440000000000000000000000000000000000 PUSH1 0x20 DUP3 ADD MSTORE PUSH1 0x40 ADD SWAP1 JUMP JUMPDEST PUSH1 0x16 DUP2 MSTORE PUSH32 0x554E41434345505441424C455F5448524553484F4C4400000000000000000000 PUSH1 0x20 DUP3 ADD MSTORE PUSH1 0x40 ADD SWAP1 JUMP JUMPDEST PUSH1 0x26 DUP2 MSTORE PUSH32 0x475245415445525F4F525F455155414C5F544F5F32305F4C454E4754485F5245 PUSH1 0x20 DUP3 ADD MSTORE PUSH32 0x5155495245440000000000000000000000000000000000000000000000000000 PUSH1 0x40 DUP3 ADD MSTORE PUSH1 0x60 ADD SWAP1 JUMP JUMPDEST PUSH1 0x17 DUP2 MSTORE PUSH32 0x554E535550504F525445445F544F4B454E5F50524F5859000000000000000000 PUSH1 0x20 DUP3 ADD MSTORE PUSH1 0x40 ADD SWAP1 JUMP JUMPDEST PUSH1 0x25 DUP2 MSTORE PUSH32 0x475245415445525F4F525F455155414C5F544F5F345F4C454E4754485F524551 PUSH1 0x20 DUP3 ADD MSTORE PUSH32 0x5549524544000000000000000000000000000000000000000000000000000000 PUSH1 0x40 DUP3 ADD MSTORE PUSH1 0x60 ADD SWAP1 JUMP JUMPDEST DUP1 MLOAD PUSH1 0x80 DUP4 ADD SWAP1 PUSH2 0x2B79 DUP5 DUP3 PUSH2 0x2CBE JUMP JUMPDEST POP PUSH1 0x20 DUP3 ADD MLOAD PUSH2 0x2B8C PUSH1 0x20 DUP6 ADD DUP3 PUSH2 0x2CBE JUMP JUMPDEST POP PUSH1 0x40 DUP3 ADD MLOAD PUSH2 0x2B9F PUSH1 0x40 DUP6 ADD DUP3 PUSH2 0x2CBE JUMP JUMPDEST POP PUSH1 0x60 DUP3 ADD MLOAD PUSH2 0x1192 PUSH1 0x60 DUP6 ADD DUP3 PUSH2 0x2CBE JUMP JUMPDEST DUP1 MLOAD PUSH1 0x0 SWAP1 PUSH2 0x180 DUP5 ADD SWAP1 PUSH2 0x2BC7 DUP6 DUP3 PUSH2 0x2734 JUMP JUMPDEST POP PUSH1 0x20 DUP4 ADD MLOAD PUSH2 0x2BDA PUSH1 0x20 DUP7 ADD DUP3 PUSH2 0x2734 JUMP JUMPDEST POP PUSH1 0x40 DUP4 ADD MLOAD PUSH2 0x2BED PUSH1 0x40 DUP7 ADD DUP3 PUSH2 0x2734 JUMP JUMPDEST POP PUSH1 0x60 DUP4 ADD MLOAD PUSH2 0x2C00 PUSH1 0x60 DUP7 ADD DUP3 PUSH2 0x2734 JUMP JUMPDEST POP PUSH1 0x80 DUP4 ADD MLOAD PUSH2 0x2C13 PUSH1 0x80 DUP7 ADD DUP3 PUSH2 0x2CBE JUMP JUMPDEST POP PUSH1 0xA0 DUP4 ADD MLOAD PUSH2 0x2C26 PUSH1 0xA0 DUP7 ADD DUP3 PUSH2 0x2CBE JUMP JUMPDEST POP PUSH1 0xC0 DUP4 ADD MLOAD PUSH2 0x2C39 PUSH1 0xC0 DUP7 ADD DUP3 PUSH2 0x2CBE JUMP JUMPDEST POP PUSH1 0xE0 DUP4 ADD MLOAD PUSH2 0x2C4C PUSH1 0xE0 DUP7 ADD DUP3 PUSH2 0x2CBE JUMP JUMPDEST POP PUSH2 0x100 DUP4 ADD MLOAD PUSH2 0x2C61 PUSH2 0x100 DUP7 ADD DUP3 PUSH2 0x2CBE JUMP JUMPDEST POP PUSH2 0x120 DUP4 ADD MLOAD PUSH2 0x2C76 PUSH2 0x120 DUP7 ADD DUP3 PUSH2 0x2CBE JUMP JUMPDEST POP PUSH2 0x140 DUP4 ADD MLOAD DUP5 DUP3 SUB PUSH2 0x140 DUP7 ADD MSTORE PUSH2 0x2C90 DUP3 DUP3 PUSH2 0x2865 JUMP JUMPDEST SWAP2 POP POP PUSH2 0x160 DUP4 ADD MLOAD DUP5 DUP3 SUB PUSH2 0x160 DUP7 ADD MSTORE PUSH2 0x2CAC DUP3 DUP3 PUSH2 0x2865 JUMP JUMPDEST SWAP6 SWAP5 POP POP POP POP POP JUMP JUMPDEST PUSH2 0x273D DUP2 PUSH2 0x2F92 JUMP JUMPDEST PUSH2 0x273D DUP2 PUSH2 0x2F99 JUMP JUMPDEST PUSH1 0x80 DUP2 ADD PUSH2 0x2CD5 DUP3 DUP8 PUSH2 0x2734 JUMP JUMPDEST PUSH2 0x2CE2 PUSH1 0x20 DUP4 ADD DUP7 PUSH2 0x2734 JUMP JUMPDEST PUSH2 0x2CEF PUSH1 0x40 DUP4 ADD DUP6 PUSH2 0x2CBE JUMP JUMPDEST DUP2 DUP2 SUB PUSH1 0x60 DUP4 ADD MSTORE PUSH2 0x2D01 DUP2 DUP5 PUSH2 0x2865 JUMP JUMPDEST SWAP7 SWAP6 POP POP POP POP POP POP JUMP JUMPDEST PUSH1 0x40 DUP2 ADD PUSH2 0x2D19 DUP3 DUP6 PUSH2 0x2734 JUMP JUMPDEST PUSH2 0xBCF PUSH1 0x20 DUP4 ADD DUP5 PUSH2 0x2CBE JUMP JUMPDEST PUSH1 0x60 DUP1 DUP3 MSTORE DUP2 ADD PUSH2 0x2D37 DUP2 DUP7 PUSH2 0x27AA JUMP JUMPDEST SWAP1 POP DUP2 DUP2 SUB PUSH1 0x20 DUP4 ADD MSTORE PUSH2 0x2D4B DUP2 DUP6 PUSH2 0x2805 JUMP JUMPDEST SWAP1 POP DUP2 DUP2 SUB PUSH1 0x40 DUP4 ADD MSTORE PUSH2 0x2CAC DUP2 DUP5 PUSH2 0x2743 JUMP JUMPDEST PUSH1 0x60 DUP1 DUP3 MSTORE DUP2 ADD PUSH2 0x2D70 DUP2 DUP7 PUSH2 0x27AA JUMP JUMPDEST SWAP1 POP PUSH2 0x2D7F PUSH1 0x20 DUP4 ADD DUP6 PUSH2 0x2CBE JUMP JUMPDEST DUP2 DUP2 SUB PUSH1 0x40 DUP4 ADD MSTORE PUSH2 0x2CAC DUP2 DUP5 PUSH2 0x2743 JUMP JUMPDEST PUSH1 0x20 DUP2 ADD PUSH2 0xCB5 DUP3 DUP5 PUSH2 0x285C JUMP JUMPDEST PUSH1 0x20 DUP1 DUP3 MSTORE DUP2 ADD PUSH2 0xCB5 DUP2 PUSH2 0x289A JUMP JUMPDEST PUSH1 0x20 DUP1 DUP3 MSTORE DUP2 ADD PUSH2 0xCB5 DUP2 PUSH2 0x28F0 JUMP JUMPDEST PUSH1 0x20 DUP1 DUP3 MSTORE DUP2 ADD PUSH2 0xCB5 DUP2 PUSH2 0x2920 JUMP JUMPDEST PUSH1 0x20 DUP1 DUP3 MSTORE DUP2 ADD PUSH2 0xCB5 DUP2 PUSH2 0x2976 JUMP JUMPDEST PUSH1 0x20 DUP1 DUP3 MSTORE DUP2 ADD PUSH2 0xCB5 DUP2 PUSH2 0x29A6 JUMP JUMPDEST PUSH1 0x20 DUP1 DUP3 MSTORE DUP2 ADD PUSH2 0xCB5 DUP2 PUSH2 0x29FC JUMP JUMPDEST PUSH1 0x20 DUP1 DUP3 MSTORE DUP2 ADD PUSH2 0xCB5 DUP2 PUSH2 0x2A2C JUMP JUMPDEST PUSH1 0x20 DUP1 DUP3 MSTORE DUP2 ADD PUSH2 0xCB5 DUP2 PUSH2 0x2A5C JUMP JUMPDEST PUSH1 0x20 DUP1 DUP3 MSTORE DUP2 ADD PUSH2 0xCB5 DUP2 PUSH2 0x2A8C JUMP JUMPDEST PUSH1 0x20 DUP1 DUP3 MSTORE DUP2 ADD PUSH2 0xCB5 DUP2 PUSH2 0x2AE2 JUMP JUMPDEST PUSH1 0x20 DUP1 DUP3 MSTORE DUP2 ADD PUSH2 0xCB5 DUP2 PUSH2 0x2B12 JUMP JUMPDEST PUSH1 0x80 DUP2 ADD PUSH2 0xCB5 DUP3 DUP5 PUSH2 0x2B68 JUMP JUMPDEST PUSH1 0x20 DUP1 DUP3 MSTORE DUP2 ADD PUSH2 0xBCF DUP2 DUP5 PUSH2 0x2BB2 JUMP JUMPDEST PUSH1 0x60 DUP1 DUP3 MSTORE DUP2 ADD PUSH2 0x2E7F DUP2 DUP7 PUSH2 0x2BB2 JUMP JUMPDEST SWAP1 POP PUSH2 0x2E8E PUSH1 0x20 DUP4 ADD DUP6 PUSH2 0x2CBE JUMP JUMPDEST DUP2 DUP2 SUB PUSH1 0x40 DUP4 ADD MSTORE PUSH2 0x2CAC DUP2 DUP5 PUSH2 0x2865 JUMP JUMPDEST PUSH1 0x20 DUP2 ADD PUSH2 0xCB5 DUP3 DUP5 PUSH2 0x2CB5 JUMP JUMPDEST PUSH1 0x20 DUP2 ADD PUSH2 0xCB5 DUP3 DUP5 PUSH2 0x2CBE JUMP JUMPDEST PUSH1 0x40 MLOAD DUP2 DUP2 ADD PUSH8 0xFFFFFFFFFFFFFFFF DUP2 GT DUP3 DUP3 LT OR ISZERO PUSH2 0x2EDB JUMPI PUSH1 0x0 DUP1 REVERT JUMPDEST PUSH1 0x40 MSTORE SWAP2 SWAP1 POP JUMP JUMPDEST PUSH1 0x0 PUSH8 0xFFFFFFFFFFFFFFFF DUP3 GT ISZERO PUSH2 0x2EFA JUMPI PUSH1 0x0 DUP1 REVERT JUMPDEST POP PUSH1 0x20 SWAP1 DUP2 MUL ADD SWAP1 JUMP JUMPDEST PUSH1 0x0 PUSH8 0xFFFFFFFFFFFFFFFF DUP3 GT ISZERO PUSH2 0x2F1B JUMPI PUSH1 0x0 DUP1 REVERT JUMPDEST POP PUSH1 0x20 PUSH1 0x1F SWAP2 SWAP1 SWAP2 ADD PUSH32 0xFFFFFFFFFFFFFFFFFFFFFFFFFFFFFFFFFFFFFFFFFFFFFFFFFFFFFFFFFFFFFFE0 AND ADD SWAP1 JUMP JUMPDEST PUSH1 0x20 ADD SWAP1 JUMP JUMPDEST MLOAD SWAP1 JUMP JUMPDEST PUSH20 0xFFFFFFFFFFFFFFFFFFFFFFFFFFFFFFFFFFFFFFFF AND SWAP1 JUMP JUMPDEST PUSH32 0xFFFFFFFF00000000000000000000000000000000000000000000000000000000 AND SWAP1 JUMP JUMPDEST PUSH2 0xFFFF AND SWAP1 JUMP JUMPDEST SWAP1 JUMP JUMPDEST PUSH1 0xFF AND SWAP1 JUMP JUMPDEST DUP3 DUP2 DUP4 CALLDATACOPY POP PUSH1 0x0 SWAP2 ADD MSTORE JUMP JUMPDEST PUSH1 0x0 JUMPDEST DUP4 DUP2 LT ISZERO PUSH2 0x2FC9 JUMPI DUP2 DUP2 ADD MLOAD DUP4 DUP3 ADD MSTORE PUSH1 0x20 ADD PUSH2 0x2FB1 JUMP JUMPDEST DUP4 DUP2 GT ISZERO PUSH2 0x1192 JUMPI POP POP PUSH1 0x0 SWAP2 ADD MSTORE JUMP JUMPDEST PUSH1 0x1F ADD PUSH32 0xFFFFFFFFFFFFFFFFFFFFFFFFFFFFFFFFFFFFFFFFFFFFFFFFFFFFFFFFFFFFFFE0 AND SWAP1 JUMP STOP LOG2 PUSH6 0x627A7A723058 KECCAK256 0xa7 RETURNDATACOPY SHL 0xc9 SELFDESTRUCT PUSH18 0x4FDD2A4A0DD65F3190A23CADDC388592C712 0xc4 PUSH18 0x7379C25C78646C6578706572696D656E7461 PUSH13 0xF5003700000000000000000000 "
			}
		}
	},
	"sourceTreeHashHex": "0xebc00f1b5b2ab1642deb659d02995875d05e4efee7147e7b3810159632e9bd92",
	"compiler": {
		"name": "solc",
		"version": "soljson-v0.4.24+commit.e67f0147.js",
		"settings": {
			"optimizer": {
				"enabled": true,
				"runs": 1000000
			},
			"outputSelection": {
				"*": {
					"*": [
						"abi",
						"evm.bytecode.object",
						"evm.bytecode.sourceMap",
						"evm.deployedBytecode.object",
						"evm.deployedBytecode.sourceMap"
					]
				}
			}
		}
	}
}