{
	"schemaVersion": "2.0.0",
	"contractName": "Hello",
	"compilerOutput": {
		"abi": [
			{
				"constant": false,
				"inputs": [
					{
						"components": [
							{
								"name": "userAddresses",
								"type": "address[]"
							},
							{
								"name": "contractAddress",
								"type": "address"
							}
						],
						"name": "addressBalanceQueries",
						"type": "tuple[]"
					}
				],
				"name": "batchQueryBalances",
				"outputs": [
					{
						"name": "",
						"type": "uint256[][]"
					}
				],
				"payable": false,
				"stateMutability": "nonpayable",
				"type": "function"
			}
		],
		"evm": {
			"bytecode": {
				"linkReferences": {},
				"object": "0x608060405234801561001057600080fd5b506105c8806100206000396000f3006080604052600436106100405763ffffffff7c01000000000000000000000000000000000000000000000000000000006000350416639cf2ff778114610045575b600080fd5b34801561005157600080fd5b506100656100603660046103ca565b61007b565b604051610072919061050f565b60405180910390f35b606060006060600080606060008088519650866040519080825280602002602001820160405280156100c157816020015b60608152602001906001900390816100ac5790505b509550600094505b868510156102645788858151811015156100df57fe5b90602001906020020151600001515193508360405190808252806020026020018201604052801561011a578160200160208202803883390190505b509250600091505b8382101561024057888581518110151561013857fe5b906020019060200201516020015173ffffffffffffffffffffffffffffffffffffffff166370a082318a8781518110151561016f57fe5b602090810290910101515180518590811061018657fe5b906020019060200201516040518263ffffffff167c01000000000000000000000000000000000000000000000000000000000281526004016101c891906104fb565b602060405180830381600087803b1580156101e257600080fd5b505af11580156101f6573d6000803e3d6000fd5b505050506040513d601f19601f8201168201806040525061021a9190810190610407565b905080838381518110151561022b57fe5b60209081029091010152600190910190610122565b82868681518110151561024f57fe5b602090810290910101526001909401936100c9565b5093979650505050505050565b600061027d8235610572565b9392505050565b6000601f8201831361029557600080fd5b81356102a86102a382610547565b610520565b915081818352602084019350602081019050838560208402820111156102cd57600080fd5b60005b838110156102f957816102e38882610271565b84525060209283019291909101906001016102d0565b5050505092915050565b6000601f8201831361031457600080fd5b81356103226102a382610547565b81815260209384019390925082018360005b838110156102f9578135860161034a8882610360565b8452506020928301929190910190600101610334565b60006040828403121561037257600080fd5b61037c6040610520565b9050813567ffffffffffffffff81111561039557600080fd5b6103a184828501610284565b82525060206103b284848301610271565b60208301525092915050565b600061027d825161058b565b6000602082840312156103dc57600080fd5b813567ffffffffffffffff8111156103f357600080fd5b6103ff84828501610303565b949350505050565b60006020828403121561041957600080fd5b60006103ff84846103be565b61042e81610572565b82525050565b600061043f8261056e565b8084526020840193508360208202850161045885610568565b60005b8481101561048f57838303885261047383835161049b565b925061047e82610568565b60209890980197915060010161045b565b50909695505050505050565b60006104a68261056e565b8084526020840193506104b883610568565b60005b828110156104e8576104ce8683516104f2565b6104d782610568565b6020969096019591506001016104bb565b5093949350505050565b61042e8161058b565b602081016105098284610425565b92915050565b6020808252810161027d8184610434565b60405181810167ffffffffffffffff8111828210171561053f57600080fd5b604052919050565b600067ffffffffffffffff82111561055e57600080fd5b5060209081020190565b60200190565b5190565b73ffffffffffffffffffffffffffffffffffffffff1690565b905600a265627a7a723058205e578d757b15ce2eeab3b4d93ce4a5241cc132a2cb8a5dd060ebcf9747f6ae8e6c6578706572696d656e74616cf50037",
				"opcodes": "PUSH1 0x80 PUSH1 0x40 MSTORE CALLVALUE DUP1 ISZERO PUSH2 0x10 JUMPI PUSH1 0x0 DUP1 REVERT JUMPDEST POP PUSH2 0x5C8 DUP1 PUSH2 0x20 PUSH1 0x0 CODECOPY PUSH1 0x0 RETURN STOP PUSH1 0x80 PUSH1 0x40 MSTORE PUSH1 0x4 CALLDATASIZE LT PUSH2 0x40 JUMPI PUSH4 0xFFFFFFFF PUSH29 0x100000000000000000000000000000000000000000000000000000000 PUSH1 0x0 CALLDATALOAD DIV AND PUSH4 0x9CF2FF77 DUP2 EQ PUSH2 0x45 JUMPI JUMPDEST PUSH1 0x0 DUP1 REVERT JUMPDEST CALLVALUE DUP1 ISZERO PUSH2 0x51 JUMPI PUSH1 0x0 DUP1 REVERT JUMPDEST POP PUSH2 0x65 PUSH2 0x60 CALLDATASIZE PUSH1 0x4 PUSH2 0x3CA JUMP JUMPDEST PUSH2 0x7B JUMP JUMPDEST PUSH1 0x40 MLOAD PUSH2 0x72 SWAP2 SWAP1 PUSH2 0x50F JUMP JUMPDEST PUSH1 0x40 MLOAD DUP1 SWAP2 SUB SWAP1 RETURN JUMPDEST PUSH1 0x60 PUSH1 0x0 PUSH1 0x60 PUSH1 0x0 DUP1 PUSH1 0x60 PUSH1 0x0 DUP1 DUP9 MLOAD SWAP7 POP DUP7 PUSH1 0x40 MLOAD SWAP1 DUP1 DUP3 MSTORE DUP1 PUSH1 0x20 MUL PUSH1 0x20 ADD DUP3 ADD PUSH1 0x40 MSTORE DUP1 ISZERO PUSH2 0xC1 JUMPI DUP2 PUSH1 0x20 ADD JUMPDEST PUSH1 0x60 DUP2 MSTORE PUSH1 0x20 ADD SWAP1 PUSH1 0x1 SWAP1 SUB SWAP1 DUP2 PUSH2 0xAC JUMPI SWAP1 POP JUMPDEST POP SWAP6 POP PUSH1 0x0 SWAP5 POP JUMPDEST DUP7 DUP6 LT ISZERO PUSH2 0x264 JUMPI DUP9 DUP6 DUP2 MLOAD DUP2 LT ISZERO ISZERO PUSH2 0xDF JUMPI INVALID JUMPDEST SWAP1 PUSH1 0x20 ADD SWAP1 PUSH1 0x20 MUL ADD MLOAD PUSH1 0x0 ADD MLOAD MLOAD SWAP4 POP DUP4 PUSH1 0x40 MLOAD SWAP1 DUP1 DUP3 MSTORE DUP1 PUSH1 0x20 MUL PUSH1 0x20 ADD DUP3 ADD PUSH1 0x40 MSTORE DUP1 ISZERO PUSH2 0x11A JUMPI DUP2 PUSH1 0x20 ADD PUSH1 0x20 DUP3 MUL DUP1 CODESIZE DUP4 CODECOPY ADD SWAP1 POP JUMPDEST POP SWAP3 POP PUSH1 0x0 SWAP2 POP JUMPDEST DUP4 DUP3 LT ISZERO PUSH2 0x240 JUMPI DUP9 DUP6 DUP2 MLOAD DUP2 LT ISZERO ISZERO PUSH2 0x138 JUMPI INVALID JUMPDEST SWAP1 PUSH1 0x20 ADD SWAP1 PUSH1 0x20 MUL ADD MLOAD PUSH1 0x20 ADD MLOAD PUSH20 0xFFFFFFFFFFFFFFFFFFFFFFFFFFFFFFFFFFFFFFFF AND PUSH4 0x70A08231 DUP11 DUP8 DUP2 MLOAD DUP2 LT ISZERO ISZERO PUSH2 0x16F JUMPI INVALID JUMPDEST PUSH1 0x20 SWAP1 DUP2 MUL SWAP1 SWAP2 ADD ADD MLOAD MLOAD DUP1 MLOAD DUP6 SWAP1 DUP2 LT PUSH2 0x186 JUMPI INVALID JUMPDEST SWAP1 PUSH1 0x20 ADD SWAP1 PUSH1 0x20 MUL ADD MLOAD PUSH1 0x40 MLOAD DUP3 PUSH4 0xFFFFFFFF AND PUSH29 0x100000000000000000000000000000000000000000000000000000000 MUL DUP2 MSTORE PUSH1 0x4 ADD PUSH2 0x1C8 SWAP2 SWAP1 PUSH2 0x4FB JUMP JUMPDEST PUSH1 0x20 PUSH1 0x40 MLOAD DUP1 DUP4 SUB DUP2 PUSH1 0x0 DUP8 DUP1 EXTCODESIZE ISZERO DUP1 ISZERO PUSH2 0x1E2 JUMPI PUSH1 0x0 DUP1 REVERT JUMPDEST POP GAS CALL ISZERO DUP1 ISZERO PUSH2 0x1F6 JUMPI RETURNDATASIZE PUSH1 0x0 DUP1 RETURNDATACOPY RETURNDATASIZE PUSH1 0x0 REVERT JUMPDEST POP POP POP POP PUSH1 0x40 MLOAD RETURNDATASIZE PUSH1 0x1F NOT PUSH1 0x1F DUP3 ADD AND DUP3 ADD DUP1 PUSH1 0x40 MSTORE POP PUSH2 0x21A SWAP2 SWAP1 DUP2 ADD SWAP1 PUSH2 0x407 JUMP JUMPDEST SWAP1 POP DUP1 DUP4 DUP4 DUP2 MLOAD DUP2 LT ISZERO ISZERO PUSH2 0x22B JUMPI INVALID JUMPDEST PUSH1 0x20 SWAP1 DUP2 MUL SWAP1 SWAP2 ADD ADD MSTORE PUSH1 0x1 SWAP1 SWAP2 ADD SWAP1 PUSH2 0x122 JUMP JUMPDEST DUP3 DUP7 DUP7 DUP2 MLOAD DUP2 LT ISZERO ISZERO PUSH2 0x24F JUMPI INVALID JUMPDEST PUSH1 0x20 SWAP1 DUP2 MUL SWAP1 SWAP2 ADD ADD MSTORE PUSH1 0x1 SWAP1 SWAP5 ADD SWAP4 PUSH2 0xC9 JUMP JUMPDEST POP SWAP4 SWAP8 SWAP7 POP POP POP POP POP POP POP JUMP JUMPDEST PUSH1 0x0 PUSH2 0x27D DUP3 CALLDATALOAD PUSH2 0x572 JUMP JUMPDEST SWAP4 SWAP3 POP POP POP JUMP JUMPDEST PUSH1 0x0 PUSH1 0x1F DUP3 ADD DUP4 SGT PUSH2 0x295 JUMPI PUSH1 0x0 DUP1 REVERT JUMPDEST DUP2 CALLDATALOAD PUSH2 0x2A8 PUSH2 0x2A3 DUP3 PUSH2 0x547 JUMP JUMPDEST PUSH2 0x520 JUMP JUMPDEST SWAP2 POP DUP2 DUP2 DUP4 MSTORE PUSH1 0x20 DUP5 ADD SWAP4 POP PUSH1 0x20 DUP2 ADD SWAP1 POP DUP4 DUP6 PUSH1 0x20 DUP5 MUL DUP3 ADD GT ISZERO PUSH2 0x2CD JUMPI PUSH1 0x0 DUP1 REVERT JUMPDEST PUSH1 0x0 JUMPDEST DUP4 DUP2 LT ISZERO PUSH2 0x2F9 JUMPI DUP2 PUSH2 0x2E3 DUP9 DUP3 PUSH2 0x271 JUMP JUMPDEST DUP5 MSTORE POP PUSH1 0x20 SWAP3 DUP4 ADD SWAP3 SWAP2 SWAP1 SWAP2 ADD SWAP1 PUSH1 0x1 ADD PUSH2 0x2D0 JUMP JUMPDEST POP POP POP POP SWAP3 SWAP2 POP POP JUMP JUMPDEST PUSH1 0x0 PUSH1 0x1F DUP3 ADD DUP4 SGT PUSH2 0x314 JUMPI PUSH1 0x0 DUP1 REVERT JUMPDEST DUP2 CALLDATALOAD PUSH2 0x322 PUSH2 0x2A3 DUP3 PUSH2 0x547 JUMP JUMPDEST DUP2 DUP2 MSTORE PUSH1 0x20 SWAP4 DUP5 ADD SWAP4 SWAP1 SWAP3 POP DUP3 ADD DUP4 PUSH1 0x0 JUMPDEST DUP4 DUP2 LT ISZERO PUSH2 0x2F9 JUMPI DUP2 CALLDATALOAD DUP7 ADD PUSH2 0x34A DUP9 DUP3 PUSH2 0x360 JUMP JUMPDEST DUP5 MSTORE POP PUSH1 0x20 SWAP3 DUP4 ADD SWAP3 SWAP2 SWAP1 SWAP2 ADD SWAP1 PUSH1 0x1 ADD PUSH2 0x334 JUMP JUMPDEST PUSH1 0x0 PUSH1 0x40 DUP3 DUP5 SUB SLT ISZERO PUSH2 0x372 JUMPI PUSH1 0x0 DUP1 REVERT JUMPDEST PUSH2 0x37C PUSH1 0x40 PUSH2 0x520 JUMP JUMPDEST SWAP1 POP DUP2 CALLDATALOAD PUSH8 0xFFFFFFFFFFFFFFFF DUP2 GT ISZERO PUSH2 0x395 JUMPI PUSH1 0x0 DUP1 REVERT JUMPDEST PUSH2 0x3A1 DUP5 DUP3 DUP6 ADD PUSH2 0x284 JUMP JUMPDEST DUP3 MSTORE POP PUSH1 0x20 PUSH2 0x3B2 DUP5 DUP5 DUP4 ADD PUSH2 0x271 JUMP JUMPDEST PUSH1 0x20 DUP4 ADD MSTORE POP SWAP3 SWAP2 POP POP JUMP JUMPDEST PUSH1 0x0 PUSH2 0x27D DUP3 MLOAD PUSH2 0x58B JUMP JUMPDEST PUSH1 0x0 PUSH1 0x20 DUP3 DUP5 SUB SLT ISZERO PUSH2 0x3DC JUMPI PUSH1 0x0 DUP1 REVERT JUMPDEST DUP2 CALLDATALOAD PUSH8 0xFFFFFFFFFFFFFFFF DUP2 GT ISZERO PUSH2 0x3F3 JUMPI PUSH1 0x0 DUP1 REVERT JUMPDEST PUSH2 0x3FF DUP5 DUP3 DUP6 ADD PUSH2 0x303 JUMP JUMPDEST SWAP5 SWAP4 POP POP POP POP JUMP JUMPDEST PUSH1 0x0 PUSH1 0x20 DUP3 DUP5 SUB SLT ISZERO PUSH2 0x419 JUMPI PUSH1 0x0 DUP1 REVERT JUMPDEST PUSH1 0x0 PUSH2 0x3FF DUP5 DUP5 PUSH2 0x3BE JUMP JUMPDEST PUSH2 0x42E DUP2 PUSH2 0x572 JUMP JUMPDEST DUP3 MSTORE POP POP JUMP JUMPDEST PUSH1 0x0 PUSH2 0x43F DUP3 PUSH2 0x56E JUMP JUMPDEST DUP1 DUP5 MSTORE PUSH1 0x20 DUP5 ADD SWAP4 POP DUP4 PUSH1 0x20 DUP3 MUL DUP6 ADD PUSH2 0x458 DUP6 PUSH2 0x568 JUMP JUMPDEST PUSH1 0x0 JUMPDEST DUP5 DUP2 LT ISZERO PUSH2 0x48F JUMPI DUP4 DUP4 SUB DUP9 MSTORE PUSH2 0x473 DUP4 DUP4 MLOAD PUSH2 0x49B JUMP JUMPDEST SWAP3 POP PUSH2 0x47E DUP3 PUSH2 0x568 JUMP JUMPDEST PUSH1 0x20 SWAP9 SWAP1 SWAP9 ADD SWAP8 SWAP2 POP PUSH1 0x1 ADD PUSH2 0x45B JUMP JUMPDEST POP SWAP1 SWAP7 SWAP6 POP POP POP POP POP POP JUMP JUMPDEST PUSH1 0x0 PUSH2 0x4A6 DUP3 PUSH2 0x56E JUMP JUMPDEST DUP1 DUP5 MSTORE PUSH1 0x20 DUP5 ADD SWAP4 POP PUSH2 0x4B8 DUP4 PUSH2 0x568 JUMP JUMPDEST PUSH1 0x0 JUMPDEST DUP3 DUP2 LT ISZERO PUSH2 0x4E8 JUMPI PUSH2 0x4CE DUP7 DUP4 MLOAD PUSH2 0x4F2 JUMP JUMPDEST PUSH2 0x4D7 DUP3 PUSH2 0x568 JUMP JUMPDEST PUSH1 0x20 SWAP7 SWAP1 SWAP7 ADD SWAP6 SWAP2 POP PUSH1 0x1 ADD PUSH2 0x4BB JUMP JUMPDEST POP SWAP4 SWAP5 SWAP4 POP POP POP POP JUMP JUMPDEST PUSH2 0x42E DUP2 PUSH2 0x58B JUMP JUMPDEST PUSH1 0x20 DUP2 ADD PUSH2 0x509 DUP3 DUP5 PUSH2 0x425 JUMP JUMPDEST SWAP3 SWAP2 POP POP JUMP JUMPDEST PUSH1 0x20 DUP1 DUP3 MSTORE DUP2 ADD PUSH2 0x27D DUP2 DUP5 PUSH2 0x434 JUMP JUMPDEST PUSH1 0x40 MLOAD DUP2 DUP2 ADD PUSH8 0xFFFFFFFFFFFFFFFF DUP2 GT DUP3 DUP3 LT OR ISZERO PUSH2 0x53F JUMPI PUSH1 0x0 DUP1 REVERT JUMPDEST PUSH1 0x40 MSTORE SWAP2 SWAP1 POP JUMP JUMPDEST PUSH1 0x0 PUSH8 0xFFFFFFFFFFFFFFFF DUP3 GT ISZERO PUSH2 0x55E JUMPI PUSH1 0x0 DUP1 REVERT JUMPDEST POP PUSH1 0x20 SWAP1 DUP2 MUL ADD SWAP1 JUMP JUMPDEST PUSH1 0x20 ADD SWAP1 JUMP JUMPDEST MLOAD SWAP1 JUMP JUMPDEST PUSH20 0xFFFFFFFFFFFFFFFFFFFFFFFFFFFFFFFFFFFFFFFF AND SWAP1 JUMP JUMPDEST SWAP1 JUMP STOP LOG2 PUSH6 0x627A7A723058 KECCAK256 0x5e JUMPI DUP14 PUSH22 0x7B15CE2EEAB3B4D93CE4A5241CC132A2CB8A5DD060EB 0xcf SWAP8 0x47 0xf6 0xae DUP15 PUSH13 0x6578706572696D656E74616CF5 STOP CALLDATACOPY "
			}
		}
	},
	"sourceTreeHashHex": "0x7575f491cd5b4ba4f0237d1edcc255091c2351daf6b0c02d2f8dd2ff123a6153",
	"compiler": {
		"name": "solc",
		"version": "0.4.23",
		"settings": {
			"optimizer": {
				"enabled": true,
				"runs": 1000000
			},
			"outputSelection": {
				"*": {
					"*": [
						"abi",
						"evm.bytecode.object",
						"evm.bytecode.sourceMap",
						"evm.deployedBytecode.object",
						"evm.deployedBytecode.sourceMap"
					]
				}
			}
		}
	}
}